{
	"contracts/MultiSend.sol": {
		"MultiSend": {
			"abi": [
				{
					"inputs": [
						{
							"internalType": "contract IERC20",
							"name": "_token",
							"type": "address"
						}
					],
					"stateMutability": "nonpayable",
					"type": "constructor"
				},
				{
					"anonymous": false,
					"inputs": [
						{
							"indexed": true,
							"internalType": "address",
							"name": "recipient",
							"type": "address"
						},
						{
							"indexed": false,
							"internalType": "uint256",
							"name": "amount",
							"type": "uint256"
						}
					],
					"name": "TransferFailed",
					"type": "event"
				},
				{
					"anonymous": false,
					"inputs": [
						{
							"indexed": true,
							"internalType": "address",
							"name": "recipient",
							"type": "address"
						},
						{
							"indexed": false,
							"internalType": "uint256",
							"name": "amount",
							"type": "uint256"
						}
					],
					"name": "TransferSucceeded",
					"type": "event"
				},
				{
					"inputs": [],
					"name": "MAX_BATCH_SIZE",
					"outputs": [
						{
							"internalType": "uint256",
							"name": "",
							"type": "uint256"
						}
					],
					"stateMutability": "view",
					"type": "function"
				},
				{
					"inputs": [
						{
							"internalType": "address[]",
							"name": "recipients",
							"type": "address[]"
						},
						{
							"internalType": "uint256[]",
							"name": "amounts",
							"type": "uint256[]"
						}
					],
					"name": "multiSend",
					"outputs": [],
					"stateMutability": "nonpayable",
					"type": "function"
				},
				{
					"inputs": [],
					"name": "token",
					"outputs": [
						{
							"internalType": "contract IERC20",
							"name": "",
							"type": "address"
						}
					],
					"stateMutability": "view",
					"type": "function"
				}
			],
			"devdoc": {
				"kind": "dev",
				"methods": {},
				"version": 1
			},
			"evm": {
				"assembly": "    /* \"contracts/MultiSend.sol\":120:1410  contract MultiSend {... */\n  mstore(0x40, 0x80)\n    /* \"contracts/MultiSend.sol\":278:338  constructor(IERC20 _token) {... */\n  callvalue\n  dup1\n  iszero\n  tag_1\n  jumpi\n  0x00\n  dup1\n  revert\ntag_1:\n  pop\n  mload(0x40)\n  sub(codesize, bytecodeSize)\n  dup1\n  bytecodeSize\n  dup4\n  codecopy\n  dup2\n  dup2\n  add\n  0x40\n  mstore\n  dup2\n  add\n  swap1\n  tag_2\n  swap2\n  swap1\n  tag_3\n  jump\t// in\ntag_2:\n    /* \"contracts/MultiSend.sol\":324:330  _token */\n  dup1\n    /* \"contracts/MultiSend.sol\":316:321  token */\n  0x00\n  dup1\n    /* \"contracts/MultiSend.sol\":316:330  token = _token */\n  0x0100\n  exp\n  dup2\n  sload\n  dup2\n  0xffffffffffffffffffffffffffffffffffffffff\n  mul\n  not\n  and\n  swap1\n  dup4\n  0xffffffffffffffffffffffffffffffffffffffff\n  and\n  mul\n  or\n  swap1\n  sstore\n  pop\n    /* \"contracts/MultiSend.sol\":278:338  constructor(IERC20 _token) {... */\n  pop\n    /* \"contracts/MultiSend.sol\":120:1410  contract MultiSend {... */\n  jump(tag_6)\n    /* \"#utility.yul\":88:205   */\ntag_8:\n    /* \"#utility.yul\":197:198   */\n  0x00\n    /* \"#utility.yul\":194:195   */\n  dup1\n    /* \"#utility.yul\":187:199   */\n  revert\n    /* \"#utility.yul\":334:460   */\ntag_10:\n    /* \"#utility.yul\":371:378   */\n  0x00\n    /* \"#utility.yul\":411:453   */\n  0xffffffffffffffffffffffffffffffffffffffff\n    /* \"#utility.yul\":404:409   */\n  dup3\n    /* \"#utility.yul\":400:454   */\n  and\n    /* \"#utility.yul\":389:454   */\n  swap1\n  pop\n    /* \"#utility.yul\":334:460   */\n  swap2\n  swap1\n  pop\n  jump\t// out\n    /* \"#utility.yul\":466:562   */\ntag_11:\n    /* \"#utility.yul\":503:510   */\n  0x00\n    /* \"#utility.yul\":532:556   */\n  tag_21\n    /* \"#utility.yul\":550:555   */\n  dup3\n    /* \"#utility.yul\":532:556   */\n  tag_10\n  jump\t// in\ntag_21:\n    /* \"#utility.yul\":521:556   */\n  swap1\n  pop\n    /* \"#utility.yul\":466:562   */\n  swap2\n  swap1\n  pop\n  jump\t// out\n    /* \"#utility.yul\":568:677   */\ntag_12:\n    /* \"#utility.yul\":618:625   */\n  0x00\n    /* \"#utility.yul\":647:671   */\n  tag_23\n    /* \"#utility.yul\":665:670   */\n  dup3\n    /* \"#utility.yul\":647:671   */\n  tag_11\n  jump\t// in\ntag_23:\n    /* \"#utility.yul\":636:671   */\n  swap1\n  pop\n    /* \"#utility.yul\":568:677   */\n  swap2\n  swap1\n  pop\n  jump\t// out\n    /* \"#utility.yul\":683:831   */\ntag_13:\n    /* \"#utility.yul\":769:806   */\n  tag_25\n    /* \"#utility.yul\":800:805   */\n  dup2\n    /* \"#utility.yul\":769:806   */\n  tag_12\n  jump\t// in\ntag_25:\n    /* \"#utility.yul\":762:767   */\n  dup2\n    /* \"#utility.yul\":759:807   */\n  eq\n    /* \"#utility.yul\":749:825   */\n  tag_26\n  jumpi\n    /* \"#utility.yul\":821:822   */\n  0x00\n    /* \"#utility.yul\":818:819   */\n  dup1\n    /* \"#utility.yul\":811:823   */\n  revert\n    /* \"#utility.yul\":749:825   */\ntag_26:\n    /* \"#utility.yul\":683:831   */\n  pop\n  jump\t// out\n    /* \"#utility.yul\":837:1006   */\ntag_14:\n    /* \"#utility.yul\":907:912   */\n  0x00\n    /* \"#utility.yul\":938:944   */\n  dup2\n    /* \"#utility.yul\":932:945   */\n  mload\n    /* \"#utility.yul\":923:945   */\n  swap1\n  pop\n    /* \"#utility.yul\":954:1000   */\n  tag_28\n    /* \"#utility.yul\":994:999   */\n  dup2\n    /* \"#utility.yul\":954:1000   */\n  tag_13\n  jump\t// in\ntag_28:\n    /* \"#utility.yul\":837:1006   */\n  swap3\n  swap2\n  pop\n  pop\n  jump\t// out\n    /* \"#utility.yul\":1012:1389   */\ntag_3:\n    /* \"#utility.yul\":1095:1101   */\n  0x00\n    /* \"#utility.yul\":1144:1146   */\n  0x20\n    /* \"#utility.yul\":1132:1141   */\n  dup3\n    /* \"#utility.yul\":1123:1130   */\n  dup5\n    /* \"#utility.yul\":1119:1142   */\n  sub\n    /* \"#utility.yul\":1115:1147   */\n  slt\n    /* \"#utility.yul\":1112:1231   */\n  iszero\n  tag_30\n  jumpi\n    /* \"#utility.yul\":1150:1229   */\n  tag_31\n  tag_8\n  jump\t// in\ntag_31:\n    /* \"#utility.yul\":1112:1231   */\ntag_30:\n    /* \"#utility.yul\":1270:1271   */\n  0x00\n    /* \"#utility.yul\":1295:1372   */\n  tag_32\n    /* \"#utility.yul\":1364:1371   */\n  dup5\n    /* \"#utility.yul\":1355:1361   */\n  dup3\n    /* \"#utility.yul\":1344:1353   */\n  dup6\n    /* \"#utility.yul\":1340:1362   */\n  add\n    /* \"#utility.yul\":1295:1372   */\n  tag_14\n  jump\t// in\ntag_32:\n    /* \"#utility.yul\":1285:1372   */\n  swap2\n  pop\n    /* \"#utility.yul\":1241:1382   */\n  pop\n    /* \"#utility.yul\":1012:1389   */\n  swap3\n  swap2\n  pop\n  pop\n  jump\t// out\n    /* \"contracts/MultiSend.sol\":120:1410  contract MultiSend {... */\ntag_6:\n  dataSize(sub_0)\n  dup1\n  dataOffset(sub_0)\n  0x00\n  codecopy\n  0x00\n  return\nstop\n\nsub_0: assembly {\n        /* \"contracts/MultiSend.sol\":120:1410  contract MultiSend {... */\n      mstore(0x40, 0x80)\n      callvalue\n      dup1\n      iszero\n      tag_1\n      jumpi\n      0x00\n      dup1\n      revert\n    tag_1:\n      pop\n      jumpi(tag_2, lt(calldatasize, 0x04))\n      shr(0xe0, calldataload(0x00))\n      dup1\n      0xbb4c9f0b\n      eq\n      tag_3\n      jumpi\n      dup1\n      0xcfdbf254\n      eq\n      tag_4\n      jumpi\n      dup1\n      0xfc0c546a\n      eq\n      tag_5\n      jumpi\n    tag_2:\n      0x00\n      dup1\n      revert\n        /* \"contracts/MultiSend.sol\":491:1407  function multiSend(address[] calldata recipients, uint256[] calldata amounts) external {... */\n    tag_3:\n      tag_6\n      0x04\n      dup1\n      calldatasize\n      sub\n      dup2\n      add\n      swap1\n      tag_7\n      swap2\n      swap1\n      tag_8\n      jump\t// in\n    tag_7:\n      tag_9\n      jump\t// in\n    tag_6:\n      stop\n        /* \"contracts/MultiSend.sol\":174:216  uint256 public constant MAX_BATCH_SIZE = 2 */\n    tag_4:\n      tag_10\n      tag_11\n      jump\t// in\n    tag_10:\n      mload(0x40)\n      tag_12\n      swap2\n      swap1\n      tag_13\n      jump\t// in\n    tag_12:\n      mload(0x40)\n      dup1\n      swap2\n      sub\n      swap1\n      return\n        /* \"contracts/MultiSend.sol\":146:165  IERC20 public token */\n    tag_5:\n      tag_14\n      tag_15\n      jump\t// in\n    tag_14:\n      mload(0x40)\n      tag_16\n      swap2\n      swap1\n      tag_17\n      jump\t// in\n    tag_16:\n      mload(0x40)\n      dup1\n      swap2\n      sub\n      swap1\n      return\n        /* \"contracts/MultiSend.sol\":491:1407  function multiSend(address[] calldata recipients, uint256[] calldata amounts) external {... */\n    tag_9:\n        /* \"contracts/MultiSend.sol\":618:625  amounts */\n      dup2\n      dup2\n        /* \"contracts/MultiSend.sol\":618:632  amounts.length */\n      swap1\n      pop\n        /* \"contracts/MultiSend.sol\":597:607  recipients */\n      dup5\n      dup5\n        /* \"contracts/MultiSend.sol\":597:614  recipients.length */\n      swap1\n      pop\n        /* \"contracts/MultiSend.sol\":597:632  recipients.length == amounts.length */\n      eq\n        /* \"contracts/MultiSend.sol\":589:692  require(recipients.length == amounts.length, \"Recipients and amounts arrays must have the same length\") */\n      tag_19\n      jumpi\n      mload(0x40)\n      0x08c379a000000000000000000000000000000000000000000000000000000000\n      dup2\n      mstore\n      0x04\n      add\n      tag_20\n      swap1\n      tag_21\n      jump\t// in\n    tag_20:\n      mload(0x40)\n      dup1\n      swap2\n      sub\n      swap1\n      revert\n    tag_19:\n        /* \"contracts/MultiSend.sol\":215:216  2 */\n      0x02\n        /* \"contracts/MultiSend.sol\":711:721  recipients */\n      dup5\n      dup5\n        /* \"contracts/MultiSend.sol\":711:728  recipients.length */\n      swap1\n      pop\n        /* \"contracts/MultiSend.sol\":711:746  recipients.length <= MAX_BATCH_SIZE */\n      gt\n      iszero\n        /* \"contracts/MultiSend.sol\":703:783  require(recipients.length <= MAX_BATCH_SIZE, \"Batch size exceeds maximum limit\") */\n      tag_22\n      jumpi\n      mload(0x40)\n      0x08c379a000000000000000000000000000000000000000000000000000000000\n      dup2\n      mstore\n      0x04\n      add\n      tag_23\n      swap1\n      tag_24\n      jump\t// in\n    tag_23:\n      mload(0x40)\n      dup1\n      swap2\n      sub\n      swap1\n      revert\n    tag_22:\n        /* \"contracts/MultiSend.sol\":796:815  uint256 totalAmount */\n      0x00\n        /* \"contracts/MultiSend.sol\":837:846  uint256 i */\n      dup1\n        /* \"contracts/MultiSend.sol\":832:932  for (uint256 i = 0; i < recipients.length; i++) {... */\n    tag_25:\n        /* \"contracts/MultiSend.sol\":856:866  recipients */\n      dup6\n      dup6\n        /* \"contracts/MultiSend.sol\":856:873  recipients.length */\n      swap1\n      pop\n        /* \"contracts/MultiSend.sol\":852:853  i */\n      dup2\n        /* \"contracts/MultiSend.sol\":852:873  i < recipients.length */\n      lt\n        /* \"contracts/MultiSend.sol\":832:932  for (uint256 i = 0; i < recipients.length; i++) {... */\n      iszero\n      tag_26\n      jumpi\n        /* \"contracts/MultiSend.sol\":910:917  amounts */\n      dup4\n      dup4\n        /* \"contracts/MultiSend.sol\":918:919  i */\n      dup3\n        /* \"contracts/MultiSend.sol\":910:920  amounts[i] */\n      dup2\n      dup2\n      lt\n      tag_28\n      jumpi\n      tag_29\n      tag_30\n      jump\t// in\n    tag_29:\n    tag_28:\n      swap1\n      pop\n      0x20\n      mul\n      add\n      calldataload\n        /* \"contracts/MultiSend.sol\":895:920  totalAmount += amounts[i] */\n      dup3\n      tag_31\n      swap2\n      swap1\n      tag_32\n      jump\t// in\n    tag_31:\n      swap2\n      pop\n        /* \"contracts/MultiSend.sol\":875:878  i++ */\n      dup1\n      dup1\n      0x01\n      add\n      swap2\n      pop\n      pop\n        /* \"contracts/MultiSend.sol\":832:932  for (uint256 i = 0; i < recipients.length; i++) {... */\n      jump(tag_25)\n    tag_26:\n      pop\n        /* \"contracts/MultiSend.sol\":998:1009  totalAmount */\n      dup1\n        /* \"contracts/MultiSend.sol\":952:957  token */\n      0x00\n      dup1\n      sload\n      swap1\n      0x0100\n      exp\n      swap1\n      div\n      0xffffffffffffffffffffffffffffffffffffffff\n      and\n        /* \"contracts/MultiSend.sol\":952:967  token.allowance */\n      0xffffffffffffffffffffffffffffffffffffffff\n      and\n      0xdd62ed3e\n        /* \"contracts/MultiSend.sol\":968:978  msg.sender */\n      caller\n        /* \"contracts/MultiSend.sol\":988:992  this */\n      address\n        /* \"contracts/MultiSend.sol\":952:994  token.allowance(msg.sender, address(this)) */\n      mload(0x40)\n      dup4\n      0xffffffff\n      and\n      0xe0\n      shl\n      dup2\n      mstore\n      0x04\n      add\n      tag_33\n      swap3\n      swap2\n      swap1\n      tag_34\n      jump\t// in\n    tag_33:\n      0x20\n      mload(0x40)\n      dup1\n      dup4\n      sub\n      dup2\n      dup7\n      gas\n      staticcall\n      iszero\n      dup1\n      iszero\n      tag_36\n      jumpi\n      returndatasize\n      0x00\n      dup1\n      returndatacopy\n      revert(0x00, returndatasize)\n    tag_36:\n      pop\n      pop\n      pop\n      pop\n      mload(0x40)\n      returndatasize\n      not(0x1f)\n      0x1f\n      dup3\n      add\n      and\n      dup3\n      add\n      dup1\n      0x40\n      mstore\n      pop\n      dup2\n      add\n      swap1\n      tag_37\n      swap2\n      swap1\n      tag_38\n      jump\t// in\n    tag_37:\n        /* \"contracts/MultiSend.sol\":952:1009  token.allowance(msg.sender, address(this)) >= totalAmount */\n      lt\n      iszero\n        /* \"contracts/MultiSend.sol\":944:1042  require(token.allowance(msg.sender, address(this)) >= totalAmount, \"Insufficient token allowance\") */\n      tag_39\n      jumpi\n      mload(0x40)\n      0x08c379a000000000000000000000000000000000000000000000000000000000\n      dup2\n      mstore\n      0x04\n      add\n      tag_40\n      swap1\n      tag_41\n      jump\t// in\n    tag_40:\n      mload(0x40)\n      dup1\n      swap2\n      sub\n      swap1\n      revert\n    tag_39:\n        /* \"contracts/MultiSend.sol\":1060:1069  uint256 i */\n      0x00\n        /* \"contracts/MultiSend.sol\":1055:1400  for (uint256 i = 0; i < recipients.length; i++) {... */\n    tag_42:\n        /* \"contracts/MultiSend.sol\":1079:1089  recipients */\n      dup6\n      dup6\n        /* \"contracts/MultiSend.sol\":1079:1096  recipients.length */\n      swap1\n      pop\n        /* \"contracts/MultiSend.sol\":1075:1076  i */\n      dup2\n        /* \"contracts/MultiSend.sol\":1075:1096  i < recipients.length */\n      lt\n        /* \"contracts/MultiSend.sol\":1055:1400  for (uint256 i = 0; i < recipients.length; i++) {... */\n      iszero\n      tag_43\n      jumpi\n        /* \"contracts/MultiSend.sol\":1118:1130  bool success */\n      0x00\n        /* \"contracts/MultiSend.sol\":1133:1138  token */\n      dup1\n      0x00\n      swap1\n      sload\n      swap1\n      0x0100\n      exp\n      swap1\n      div\n      0xffffffffffffffffffffffffffffffffffffffff\n      and\n        /* \"contracts/MultiSend.sol\":1133:1151  token.transferFrom */\n      0xffffffffffffffffffffffffffffffffffffffff\n      and\n      0x23b872dd\n        /* \"contracts/MultiSend.sol\":1152:1162  msg.sender */\n      caller\n        /* \"contracts/MultiSend.sol\":1164:1174  recipients */\n      dup10\n      dup10\n        /* \"contracts/MultiSend.sol\":1175:1176  i */\n      dup7\n        /* \"contracts/MultiSend.sol\":1164:1177  recipients[i] */\n      dup2\n      dup2\n      lt\n      tag_45\n      jumpi\n      tag_46\n      tag_30\n      jump\t// in\n    tag_46:\n    tag_45:\n      swap1\n      pop\n      0x20\n      mul\n      add\n      0x20\n      dup2\n      add\n      swap1\n      tag_47\n      swap2\n      swap1\n      tag_48\n      jump\t// in\n    tag_47:\n        /* \"contracts/MultiSend.sol\":1179:1186  amounts */\n      dup9\n      dup9\n        /* \"contracts/MultiSend.sol\":1187:1188  i */\n      dup8\n        /* \"contracts/MultiSend.sol\":1179:1189  amounts[i] */\n      dup2\n      dup2\n      lt\n      tag_49\n      jumpi\n      tag_50\n      tag_30\n      jump\t// in\n    tag_50:\n    tag_49:\n      swap1\n      pop\n      0x20\n      mul\n      add\n      calldataload\n        /* \"contracts/MultiSend.sol\":1133:1190  token.transferFrom(msg.sender, recipients[i], amounts[i]) */\n      mload(0x40)\n      dup5\n      0xffffffff\n      and\n      0xe0\n      shl\n      dup2\n      mstore\n      0x04\n      add\n      tag_51\n      swap4\n      swap3\n      swap2\n      swap1\n      tag_52\n      jump\t// in\n    tag_51:\n      0x20\n      mload(0x40)\n      dup1\n      dup4\n      sub\n      dup2\n      0x00\n      dup8\n      gas\n      call\n      iszero\n      dup1\n      iszero\n      tag_54\n      jumpi\n      returndatasize\n      0x00\n      dup1\n      returndatacopy\n      revert(0x00, returndatasize)\n    tag_54:\n      pop\n      pop\n      pop\n      pop\n      mload(0x40)\n      returndatasize\n      not(0x1f)\n      0x1f\n      dup3\n      add\n      and\n      dup3\n      add\n      dup1\n      0x40\n      mstore\n      pop\n      dup2\n      add\n      swap1\n      tag_55\n      swap2\n      swap1\n      tag_56\n      jump\t// in\n    tag_55:\n        /* \"contracts/MultiSend.sol\":1118:1190  bool success = token.transferFrom(msg.sender, recipients[i], amounts[i]) */\n      swap1\n      pop\n        /* \"contracts/MultiSend.sol\":1209:1216  success */\n      dup1\n        /* \"contracts/MultiSend.sol\":1205:1389  if (success) {... */\n      iszero\n      tag_57\n      jumpi\n        /* \"contracts/MultiSend.sol\":1260:1270  recipients */\n      dup7\n      dup7\n        /* \"contracts/MultiSend.sol\":1271:1272  i */\n      dup4\n        /* \"contracts/MultiSend.sol\":1260:1273  recipients[i] */\n      dup2\n      dup2\n      lt\n      tag_58\n      jumpi\n      tag_59\n      tag_30\n      jump\t// in\n    tag_59:\n    tag_58:\n      swap1\n      pop\n      0x20\n      mul\n      add\n      0x20\n      dup2\n      add\n      swap1\n      tag_60\n      swap2\n      swap1\n      tag_48\n      jump\t// in\n    tag_60:\n        /* \"contracts/MultiSend.sol\":1242:1286  TransferSucceeded(recipients[i], amounts[i]) */\n      0xffffffffffffffffffffffffffffffffffffffff\n      and\n      0xc12c845aa612685ce7eba62f9a39aa76cd74c79886ba529d72a23d31690d8c73\n        /* \"contracts/MultiSend.sol\":1275:1282  amounts */\n      dup7\n      dup7\n        /* \"contracts/MultiSend.sol\":1283:1284  i */\n      dup6\n        /* \"contracts/MultiSend.sol\":1275:1285  amounts[i] */\n      dup2\n      dup2\n      lt\n      tag_61\n      jumpi\n      tag_62\n      tag_30\n      jump\t// in\n    tag_62:\n    tag_61:\n      swap1\n      pop\n      0x20\n      mul\n      add\n      calldataload\n        /* \"contracts/MultiSend.sol\":1242:1286  TransferSucceeded(recipients[i], amounts[i]) */\n      mload(0x40)\n      tag_63\n      swap2\n      swap1\n      tag_13\n      jump\t// in\n    tag_63:\n      mload(0x40)\n      dup1\n      swap2\n      sub\n      swap1\n      log2\n        /* \"contracts/MultiSend.sol\":1205:1389  if (success) {... */\n      jump(tag_64)\n    tag_57:\n        /* \"contracts/MultiSend.sol\":1347:1357  recipients */\n      dup7\n      dup7\n        /* \"contracts/MultiSend.sol\":1358:1359  i */\n      dup4\n        /* \"contracts/MultiSend.sol\":1347:1360  recipients[i] */\n      dup2\n      dup2\n      lt\n      tag_65\n      jumpi\n      tag_66\n      tag_30\n      jump\t// in\n    tag_66:\n    tag_65:\n      swap1\n      pop\n      0x20\n      mul\n      add\n      0x20\n      dup2\n      add\n      swap1\n      tag_67\n      swap2\n      swap1\n      tag_48\n      jump\t// in\n    tag_67:\n        /* \"contracts/MultiSend.sol\":1332:1373  TransferFailed(recipients[i], amounts[i]) */\n      0xffffffffffffffffffffffffffffffffffffffff\n      and\n      0x1c43b9761b3fba5321ca8212bfc231945f668ccc0c446f333999eea9ce8fda81\n        /* \"contracts/MultiSend.sol\":1362:1369  amounts */\n      dup7\n      dup7\n        /* \"contracts/MultiSend.sol\":1370:1371  i */\n      dup6\n        /* \"contracts/MultiSend.sol\":1362:1372  amounts[i] */\n      dup2\n      dup2\n      lt\n      tag_68\n      jumpi\n      tag_69\n      tag_30\n      jump\t// in\n    tag_69:\n    tag_68:\n      swap1\n      pop\n      0x20\n      mul\n      add\n      calldataload\n        /* \"contracts/MultiSend.sol\":1332:1373  TransferFailed(recipients[i], amounts[i]) */\n      mload(0x40)\n      tag_70\n      swap2\n      swap1\n      tag_13\n      jump\t// in\n    tag_70:\n      mload(0x40)\n      dup1\n      swap2\n      sub\n      swap1\n      log2\n        /* \"contracts/MultiSend.sol\":1205:1389  if (success) {... */\n    tag_64:\n        /* \"contracts/MultiSend.sol\":1103:1400  {... */\n      pop\n        /* \"contracts/MultiSend.sol\":1098:1101  i++ */\n      dup1\n      dup1\n      0x01\n      add\n      swap2\n      pop\n      pop\n        /* \"contracts/MultiSend.sol\":1055:1400  for (uint256 i = 0; i < recipients.length; i++) {... */\n      jump(tag_42)\n    tag_43:\n      pop\n        /* \"contracts/MultiSend.sol\":578:1407  {... */\n      pop\n        /* \"contracts/MultiSend.sol\":491:1407  function multiSend(address[] calldata recipients, uint256[] calldata amounts) external {... */\n      pop\n      pop\n      pop\n      pop\n      jump\t// out\n        /* \"contracts/MultiSend.sol\":174:216  uint256 public constant MAX_BATCH_SIZE = 2 */\n    tag_11:\n        /* \"contracts/MultiSend.sol\":215:216  2 */\n      0x02\n        /* \"contracts/MultiSend.sol\":174:216  uint256 public constant MAX_BATCH_SIZE = 2 */\n      dup2\n      jump\t// out\n        /* \"contracts/MultiSend.sol\":146:165  IERC20 public token */\n    tag_15:\n      0x00\n      dup1\n      sload\n      swap1\n      0x0100\n      exp\n      swap1\n      div\n      0xffffffffffffffffffffffffffffffffffffffff\n      and\n      dup2\n      jump\t// out\n        /* \"#utility.yul\":88:205   */\n    tag_72:\n        /* \"#utility.yul\":197:198   */\n      0x00\n        /* \"#utility.yul\":194:195   */\n      dup1\n        /* \"#utility.yul\":187:199   */\n      revert\n        /* \"#utility.yul\":211:328   */\n    tag_73:\n        /* \"#utility.yul\":320:321   */\n      0x00\n        /* \"#utility.yul\":317:318   */\n      dup1\n        /* \"#utility.yul\":310:322   */\n      revert\n        /* \"#utility.yul\":334:451   */\n    tag_74:\n        /* \"#utility.yul\":443:444   */\n      0x00\n        /* \"#utility.yul\":440:441   */\n      dup1\n        /* \"#utility.yul\":433:445   */\n      revert\n        /* \"#utility.yul\":457:574   */\n    tag_75:\n        /* \"#utility.yul\":566:567   */\n      0x00\n        /* \"#utility.yul\":563:564   */\n      dup1\n        /* \"#utility.yul\":556:568   */\n      revert\n        /* \"#utility.yul\":580:697   */\n    tag_76:\n        /* \"#utility.yul\":689:690   */\n      0x00\n        /* \"#utility.yul\":686:687   */\n      dup1\n        /* \"#utility.yul\":679:691   */\n      revert\n        /* \"#utility.yul\":720:1288   */\n    tag_77:\n        /* \"#utility.yul\":793:801   */\n      0x00\n        /* \"#utility.yul\":803:809   */\n      dup1\n        /* \"#utility.yul\":853:856   */\n      dup4\n        /* \"#utility.yul\":846:850   */\n      0x1f\n        /* \"#utility.yul\":838:844   */\n      dup5\n        /* \"#utility.yul\":834:851   */\n      add\n        /* \"#utility.yul\":830:857   */\n      slt\n        /* \"#utility.yul\":820:942   */\n      tag_112\n      jumpi\n        /* \"#utility.yul\":861:940   */\n      tag_113\n      tag_74\n      jump\t// in\n    tag_113:\n        /* \"#utility.yul\":820:942   */\n    tag_112:\n        /* \"#utility.yul\":974:980   */\n      dup3\n        /* \"#utility.yul\":961:981   */\n      calldataload\n        /* \"#utility.yul\":951:981   */\n      swap1\n      pop\n        /* \"#utility.yul\":1004:1022   */\n      0xffffffffffffffff\n        /* \"#utility.yul\":996:1002   */\n      dup2\n        /* \"#utility.yul\":993:1023   */\n      gt\n        /* \"#utility.yul\":990:1107   */\n      iszero\n      tag_114\n      jumpi\n        /* \"#utility.yul\":1026:1105   */\n      tag_115\n      tag_75\n      jump\t// in\n    tag_115:\n        /* \"#utility.yul\":990:1107   */\n    tag_114:\n        /* \"#utility.yul\":1140:1144   */\n      0x20\n        /* \"#utility.yul\":1132:1138   */\n      dup4\n        /* \"#utility.yul\":1128:1145   */\n      add\n        /* \"#utility.yul\":1116:1145   */\n      swap2\n      pop\n        /* \"#utility.yul\":1194:1197   */\n      dup4\n        /* \"#utility.yul\":1186:1190   */\n      0x20\n        /* \"#utility.yul\":1178:1184   */\n      dup3\n        /* \"#utility.yul\":1174:1191   */\n      mul\n        /* \"#utility.yul\":1164:1172   */\n      dup4\n        /* \"#utility.yul\":1160:1192   */\n      add\n        /* \"#utility.yul\":1157:1198   */\n      gt\n        /* \"#utility.yul\":1154:1282   */\n      iszero\n      tag_116\n      jumpi\n        /* \"#utility.yul\":1201:1280   */\n      tag_117\n      tag_76\n      jump\t// in\n    tag_117:\n        /* \"#utility.yul\":1154:1282   */\n    tag_116:\n        /* \"#utility.yul\":720:1288   */\n      swap3\n      pop\n      swap3\n      swap1\n      pop\n      jump\t// out\n        /* \"#utility.yul\":1311:1879   */\n    tag_78:\n        /* \"#utility.yul\":1384:1392   */\n      0x00\n        /* \"#utility.yul\":1394:1400   */\n      dup1\n        /* \"#utility.yul\":1444:1447   */\n      dup4\n        /* \"#utility.yul\":1437:1441   */\n      0x1f\n        /* \"#utility.yul\":1429:1435   */\n      dup5\n        /* \"#utility.yul\":1425:1442   */\n      add\n        /* \"#utility.yul\":1421:1448   */\n      slt\n        /* \"#utility.yul\":1411:1533   */\n      tag_119\n      jumpi\n        /* \"#utility.yul\":1452:1531   */\n      tag_120\n      tag_74\n      jump\t// in\n    tag_120:\n        /* \"#utility.yul\":1411:1533   */\n    tag_119:\n        /* \"#utility.yul\":1565:1571   */\n      dup3\n        /* \"#utility.yul\":1552:1572   */\n      calldataload\n        /* \"#utility.yul\":1542:1572   */\n      swap1\n      pop\n        /* \"#utility.yul\":1595:1613   */\n      0xffffffffffffffff\n        /* \"#utility.yul\":1587:1593   */\n      dup2\n        /* \"#utility.yul\":1584:1614   */\n      gt\n        /* \"#utility.yul\":1581:1698   */\n      iszero\n      tag_121\n      jumpi\n        /* \"#utility.yul\":1617:1696   */\n      tag_122\n      tag_75\n      jump\t// in\n    tag_122:\n        /* \"#utility.yul\":1581:1698   */\n    tag_121:\n        /* \"#utility.yul\":1731:1735   */\n      0x20\n        /* \"#utility.yul\":1723:1729   */\n      dup4\n        /* \"#utility.yul\":1719:1736   */\n      add\n        /* \"#utility.yul\":1707:1736   */\n      swap2\n      pop\n        /* \"#utility.yul\":1785:1788   */\n      dup4\n        /* \"#utility.yul\":1777:1781   */\n      0x20\n        /* \"#utility.yul\":1769:1775   */\n      dup3\n        /* \"#utility.yul\":1765:1782   */\n      mul\n        /* \"#utility.yul\":1755:1763   */\n      dup4\n        /* \"#utility.yul\":1751:1783   */\n      add\n        /* \"#utility.yul\":1748:1789   */\n      gt\n        /* \"#utility.yul\":1745:1873   */\n      iszero\n      tag_123\n      jumpi\n        /* \"#utility.yul\":1792:1871   */\n      tag_124\n      tag_76\n      jump\t// in\n    tag_124:\n        /* \"#utility.yul\":1745:1873   */\n    tag_123:\n        /* \"#utility.yul\":1311:1879   */\n      swap3\n      pop\n      swap3\n      swap1\n      pop\n      jump\t// out\n        /* \"#utility.yul\":1885:2819   */\n    tag_8:\n        /* \"#utility.yul\":2007:2013   */\n      0x00\n        /* \"#utility.yul\":2015:2021   */\n      dup1\n        /* \"#utility.yul\":2023:2029   */\n      0x00\n        /* \"#utility.yul\":2031:2037   */\n      dup1\n        /* \"#utility.yul\":2080:2082   */\n      0x40\n        /* \"#utility.yul\":2068:2077   */\n      dup6\n        /* \"#utility.yul\":2059:2066   */\n      dup8\n        /* \"#utility.yul\":2055:2078   */\n      sub\n        /* \"#utility.yul\":2051:2083   */\n      slt\n        /* \"#utility.yul\":2048:2167   */\n      iszero\n      tag_126\n      jumpi\n        /* \"#utility.yul\":2086:2165   */\n      tag_127\n      tag_72\n      jump\t// in\n    tag_127:\n        /* \"#utility.yul\":2048:2167   */\n    tag_126:\n        /* \"#utility.yul\":2234:2235   */\n      0x00\n        /* \"#utility.yul\":2223:2232   */\n      dup6\n        /* \"#utility.yul\":2219:2236   */\n      add\n        /* \"#utility.yul\":2206:2237   */\n      calldataload\n        /* \"#utility.yul\":2264:2282   */\n      0xffffffffffffffff\n        /* \"#utility.yul\":2256:2262   */\n      dup2\n        /* \"#utility.yul\":2253:2283   */\n      gt\n        /* \"#utility.yul\":2250:2367   */\n      iszero\n      tag_128\n      jumpi\n        /* \"#utility.yul\":2286:2365   */\n      tag_129\n      tag_73\n      jump\t// in\n    tag_129:\n        /* \"#utility.yul\":2250:2367   */\n    tag_128:\n        /* \"#utility.yul\":2399:2479   */\n      tag_130\n        /* \"#utility.yul\":2471:2478   */\n      dup8\n        /* \"#utility.yul\":2462:2468   */\n      dup3\n        /* \"#utility.yul\":2451:2460   */\n      dup9\n        /* \"#utility.yul\":2447:2469   */\n      add\n        /* \"#utility.yul\":2399:2479   */\n      tag_77\n      jump\t// in\n    tag_130:\n        /* \"#utility.yul\":2381:2479   */\n      swap5\n      pop\n      swap5\n      pop\n        /* \"#utility.yul\":2177:2489   */\n      pop\n        /* \"#utility.yul\":2556:2558   */\n      0x20\n        /* \"#utility.yul\":2545:2554   */\n      dup6\n        /* \"#utility.yul\":2541:2559   */\n      add\n        /* \"#utility.yul\":2528:2560   */\n      calldataload\n        /* \"#utility.yul\":2587:2605   */\n      0xffffffffffffffff\n        /* \"#utility.yul\":2579:2585   */\n      dup2\n        /* \"#utility.yul\":2576:2606   */\n      gt\n        /* \"#utility.yul\":2573:2690   */\n      iszero\n      tag_131\n      jumpi\n        /* \"#utility.yul\":2609:2688   */\n      tag_132\n      tag_73\n      jump\t// in\n    tag_132:\n        /* \"#utility.yul\":2573:2690   */\n    tag_131:\n        /* \"#utility.yul\":2722:2802   */\n      tag_133\n        /* \"#utility.yul\":2794:2801   */\n      dup8\n        /* \"#utility.yul\":2785:2791   */\n      dup3\n        /* \"#utility.yul\":2774:2783   */\n      dup9\n        /* \"#utility.yul\":2770:2792   */\n      add\n        /* \"#utility.yul\":2722:2802   */\n      tag_78\n      jump\t// in\n    tag_133:\n        /* \"#utility.yul\":2704:2802   */\n      swap3\n      pop\n      swap3\n      pop\n        /* \"#utility.yul\":2499:2812   */\n      pop\n        /* \"#utility.yul\":1885:2819   */\n      swap3\n      swap6\n      swap2\n      swap5\n      pop\n      swap3\n      pop\n      jump\t// out\n        /* \"#utility.yul\":2825:2902   */\n    tag_79:\n        /* \"#utility.yul\":2862:2869   */\n      0x00\n        /* \"#utility.yul\":2891:2896   */\n      dup2\n        /* \"#utility.yul\":2880:2896   */\n      swap1\n      pop\n        /* \"#utility.yul\":2825:2902   */\n      swap2\n      swap1\n      pop\n      jump\t// out\n        /* \"#utility.yul\":2908:3026   */\n    tag_80:\n        /* \"#utility.yul\":2995:3019   */\n      tag_136\n        /* \"#utility.yul\":3013:3018   */\n      dup2\n        /* \"#utility.yul\":2995:3019   */\n      tag_79\n      jump\t// in\n    tag_136:\n        /* \"#utility.yul\":2990:2993   */\n      dup3\n        /* \"#utility.yul\":2983:3020   */\n      mstore\n        /* \"#utility.yul\":2908:3026   */\n      pop\n      pop\n      jump\t// out\n        /* \"#utility.yul\":3032:3254   */\n    tag_13:\n        /* \"#utility.yul\":3125:3129   */\n      0x00\n        /* \"#utility.yul\":3163:3165   */\n      0x20\n        /* \"#utility.yul\":3152:3161   */\n      dup3\n        /* \"#utility.yul\":3148:3166   */\n      add\n        /* \"#utility.yul\":3140:3166   */\n      swap1\n      pop\n        /* \"#utility.yul\":3176:3247   */\n      tag_138\n        /* \"#utility.yul\":3244:3245   */\n      0x00\n        /* \"#utility.yul\":3233:3242   */\n      dup4\n        /* \"#utility.yul\":3229:3246   */\n      add\n        /* \"#utility.yul\":3220:3226   */\n      dup5\n        /* \"#utility.yul\":3176:3247   */\n      tag_80\n      jump\t// in\n    tag_138:\n        /* \"#utility.yul\":3032:3254   */\n      swap3\n      swap2\n      pop\n      pop\n      jump\t// out\n        /* \"#utility.yul\":3260:3386   */\n    tag_81:\n        /* \"#utility.yul\":3297:3304   */\n      0x00\n        /* \"#utility.yul\":3337:3379   */\n      0xffffffffffffffffffffffffffffffffffffffff\n        /* \"#utility.yul\":3330:3335   */\n      dup3\n        /* \"#utility.yul\":3326:3380   */\n      and\n        /* \"#utility.yul\":3315:3380   */\n      swap1\n      pop\n        /* \"#utility.yul\":3260:3386   */\n      swap2\n      swap1\n      pop\n      jump\t// out\n        /* \"#utility.yul\":3392:3452   */\n    tag_82:\n        /* \"#utility.yul\":3420:3423   */\n      0x00\n        /* \"#utility.yul\":3441:3446   */\n      dup2\n        /* \"#utility.yul\":3434:3446   */\n      swap1\n      pop\n        /* \"#utility.yul\":3392:3452   */\n      swap2\n      swap1\n      pop\n      jump\t// out\n        /* \"#utility.yul\":3458:3600   */\n    tag_83:\n        /* \"#utility.yul\":3508:3517   */\n      0x00\n        /* \"#utility.yul\":3541:3594   */\n      tag_142\n        /* \"#utility.yul\":3559:3593   */\n      tag_143\n        /* \"#utility.yul\":3568:3592   */\n      tag_144\n        /* \"#utility.yul\":3586:3591   */\n      dup5\n        /* \"#utility.yul\":3568:3592   */\n      tag_81\n      jump\t// in\n    tag_144:\n        /* \"#utility.yul\":3559:3593   */\n      tag_82\n      jump\t// in\n    tag_143:\n        /* \"#utility.yul\":3541:3594   */\n      tag_81\n      jump\t// in\n    tag_142:\n        /* \"#utility.yul\":3528:3594   */\n      swap1\n      pop\n        /* \"#utility.yul\":3458:3600   */\n      swap2\n      swap1\n      pop\n      jump\t// out\n        /* \"#utility.yul\":3606:3732   */\n    tag_84:\n        /* \"#utility.yul\":3656:3665   */\n      0x00\n        /* \"#utility.yul\":3689:3726   */\n      tag_146\n        /* \"#utility.yul\":3720:3725   */\n      dup3\n        /* \"#utility.yul\":3689:3726   */\n      tag_83\n      jump\t// in\n    tag_146:\n        /* \"#utility.yul\":3676:3726   */\n      swap1\n      pop\n        /* \"#utility.yul\":3606:3732   */\n      swap2\n      swap1\n      pop\n      jump\t// out\n        /* \"#utility.yul\":3738:3877   */\n    tag_85:\n        /* \"#utility.yul\":3801:3810   */\n      0x00\n        /* \"#utility.yul\":3834:3871   */\n      tag_148\n        /* \"#utility.yul\":3865:3870   */\n      dup3\n        /* \"#utility.yul\":3834:3871   */\n      tag_84\n      jump\t// in\n    tag_148:\n        /* \"#utility.yul\":3821:3871   */\n      swap1\n      pop\n        /* \"#utility.yul\":3738:3877   */\n      swap2\n      swap1\n      pop\n      jump\t// out\n        /* \"#utility.yul\":3883:4040   */\n    tag_86:\n        /* \"#utility.yul\":3983:4033   */\n      tag_150\n        /* \"#utility.yul\":4027:4032   */\n      dup2\n        /* \"#utility.yul\":3983:4033   */\n      tag_85\n      jump\t// in\n    tag_150:\n        /* \"#utility.yul\":3978:3981   */\n      dup3\n        /* \"#utility.yul\":3971:4034   */\n      mstore\n        /* \"#utility.yul\":3883:4040   */\n      pop\n      pop\n      jump\t// out\n        /* \"#utility.yul\":4046:4294   */\n    tag_17:\n        /* \"#utility.yul\":4152:4156   */\n      0x00\n        /* \"#utility.yul\":4190:4192   */\n      0x20\n        /* \"#utility.yul\":4179:4188   */\n      dup3\n        /* \"#utility.yul\":4175:4193   */\n      add\n        /* \"#utility.yul\":4167:4193   */\n      swap1\n      pop\n        /* \"#utility.yul\":4203:4287   */\n      tag_152\n        /* \"#utility.yul\":4284:4285   */\n      0x00\n        /* \"#utility.yul\":4273:4282   */\n      dup4\n        /* \"#utility.yul\":4269:4286   */\n      add\n        /* \"#utility.yul\":4260:4266   */\n      dup5\n        /* \"#utility.yul\":4203:4287   */\n      tag_86\n      jump\t// in\n    tag_152:\n        /* \"#utility.yul\":4046:4294   */\n      swap3\n      swap2\n      pop\n      pop\n      jump\t// out\n        /* \"#utility.yul\":4300:4469   */\n    tag_87:\n        /* \"#utility.yul\":4384:4395   */\n      0x00\n        /* \"#utility.yul\":4418:4424   */\n      dup3\n        /* \"#utility.yul\":4413:4416   */\n      dup3\n        /* \"#utility.yul\":4406:4425   */\n      mstore\n        /* \"#utility.yul\":4458:4462   */\n      0x20\n        /* \"#utility.yul\":4453:4456   */\n      dup3\n        /* \"#utility.yul\":4449:4463   */\n      add\n        /* \"#utility.yul\":4434:4463   */\n      swap1\n      pop\n        /* \"#utility.yul\":4300:4469   */\n      swap3\n      swap2\n      pop\n      pop\n      jump\t// out\n        /* \"#utility.yul\":4475:4717   */\n    tag_88:\n        /* \"#utility.yul\":4615:4649   */\n      0x526563697069656e747320616e6420616d6f756e747320617272617973206d75\n        /* \"#utility.yul\":4611:4612   */\n      0x00\n        /* \"#utility.yul\":4603:4609   */\n      dup3\n        /* \"#utility.yul\":4599:4613   */\n      add\n        /* \"#utility.yul\":4592:4650   */\n      mstore\n        /* \"#utility.yul\":4684:4709   */\n      0x73742068617665207468652073616d65206c656e677468000000000000000000\n        /* \"#utility.yul\":4679:4681   */\n      0x20\n        /* \"#utility.yul\":4671:4677   */\n      dup3\n        /* \"#utility.yul\":4667:4682   */\n      add\n        /* \"#utility.yul\":4660:4710   */\n      mstore\n        /* \"#utility.yul\":4475:4717   */\n      pop\n      jump\t// out\n        /* \"#utility.yul\":4723:5089   */\n    tag_89:\n        /* \"#utility.yul\":4865:4868   */\n      0x00\n        /* \"#utility.yul\":4886:4953   */\n      tag_156\n        /* \"#utility.yul\":4950:4952   */\n      0x37\n        /* \"#utility.yul\":4945:4948   */\n      dup4\n        /* \"#utility.yul\":4886:4953   */\n      tag_87\n      jump\t// in\n    tag_156:\n        /* \"#utility.yul\":4879:4953   */\n      swap2\n      pop\n        /* \"#utility.yul\":4962:5055   */\n      tag_157\n        /* \"#utility.yul\":5051:5054   */\n      dup3\n        /* \"#utility.yul\":4962:5055   */\n      tag_88\n      jump\t// in\n    tag_157:\n        /* \"#utility.yul\":5080:5082   */\n      0x40\n        /* \"#utility.yul\":5075:5078   */\n      dup3\n        /* \"#utility.yul\":5071:5083   */\n      add\n        /* \"#utility.yul\":5064:5083   */\n      swap1\n      pop\n        /* \"#utility.yul\":4723:5089   */\n      swap2\n      swap1\n      pop\n      jump\t// out\n        /* \"#utility.yul\":5095:5514   */\n    tag_21:\n        /* \"#utility.yul\":5261:5265   */\n      0x00\n        /* \"#utility.yul\":5299:5301   */\n      0x20\n        /* \"#utility.yul\":5288:5297   */\n      dup3\n        /* \"#utility.yul\":5284:5302   */\n      add\n        /* \"#utility.yul\":5276:5302   */\n      swap1\n      pop\n        /* \"#utility.yul\":5348:5357   */\n      dup2\n        /* \"#utility.yul\":5342:5346   */\n      dup2\n        /* \"#utility.yul\":5338:5358   */\n      sub\n        /* \"#utility.yul\":5334:5335   */\n      0x00\n        /* \"#utility.yul\":5323:5332   */\n      dup4\n        /* \"#utility.yul\":5319:5336   */\n      add\n        /* \"#utility.yul\":5312:5359   */\n      mstore\n        /* \"#utility.yul\":5376:5507   */\n      tag_159\n        /* \"#utility.yul\":5502:5506   */\n      dup2\n        /* \"#utility.yul\":5376:5507   */\n      tag_89\n      jump\t// in\n    tag_159:\n        /* \"#utility.yul\":5368:5507   */\n      swap1\n      pop\n        /* \"#utility.yul\":5095:5514   */\n      swap2\n      swap1\n      pop\n      jump\t// out\n        /* \"#utility.yul\":5520:5702   */\n    tag_90:\n        /* \"#utility.yul\":5660:5694   */\n      0x42617463682073697a652065786365656473206d6178696d756d206c696d6974\n        /* \"#utility.yul\":5656:5657   */\n      0x00\n        /* \"#utility.yul\":5648:5654   */\n      dup3\n        /* \"#utility.yul\":5644:5658   */\n      add\n        /* \"#utility.yul\":5637:5695   */\n      mstore\n        /* \"#utility.yul\":5520:5702   */\n      pop\n      jump\t// out\n        /* \"#utility.yul\":5708:6074   */\n    tag_91:\n        /* \"#utility.yul\":5850:5853   */\n      0x00\n        /* \"#utility.yul\":5871:5938   */\n      tag_162\n        /* \"#utility.yul\":5935:5937   */\n      0x20\n        /* \"#utility.yul\":5930:5933   */\n      dup4\n        /* \"#utility.yul\":5871:5938   */\n      tag_87\n      jump\t// in\n    tag_162:\n        /* \"#utility.yul\":5864:5938   */\n      swap2\n      pop\n        /* \"#utility.yul\":5947:6040   */\n      tag_163\n        /* \"#utility.yul\":6036:6039   */\n      dup3\n        /* \"#utility.yul\":5947:6040   */\n      tag_90\n      jump\t// in\n    tag_163:\n        /* \"#utility.yul\":6065:6067   */\n      0x20\n        /* \"#utility.yul\":6060:6063   */\n      dup3\n        /* \"#utility.yul\":6056:6068   */\n      add\n        /* \"#utility.yul\":6049:6068   */\n      swap1\n      pop\n        /* \"#utility.yul\":5708:6074   */\n      swap2\n      swap1\n      pop\n      jump\t// out\n        /* \"#utility.yul\":6080:6499   */\n    tag_24:\n        /* \"#utility.yul\":6246:6250   */\n      0x00\n        /* \"#utility.yul\":6284:6286   */\n      0x20\n        /* \"#utility.yul\":6273:6282   */\n      dup3\n        /* \"#utility.yul\":6269:6287   */\n      add\n        /* \"#utility.yul\":6261:6287   */\n      swap1\n      pop\n        /* \"#utility.yul\":6333:6342   */\n      dup2\n        /* \"#utility.yul\":6327:6331   */\n      dup2\n        /* \"#utility.yul\":6323:6343   */\n      sub\n        /* \"#utility.yul\":6319:6320   */\n      0x00\n        /* \"#utility.yul\":6308:6317   */\n      dup4\n        /* \"#utility.yul\":6304:6321   */\n      add\n        /* \"#utility.yul\":6297:6344   */\n      mstore\n        /* \"#utility.yul\":6361:6492   */\n      tag_165\n        /* \"#utility.yul\":6487:6491   */\n      dup2\n        /* \"#utility.yul\":6361:6492   */\n      tag_91\n      jump\t// in\n    tag_165:\n        /* \"#utility.yul\":6353:6492   */\n      swap1\n      pop\n        /* \"#utility.yul\":6080:6499   */\n      swap2\n      swap1\n      pop\n      jump\t// out\n        /* \"#utility.yul\":6505:6685   */\n    tag_30:\n        /* \"#utility.yul\":6553:6630   */\n      0x4e487b7100000000000000000000000000000000000000000000000000000000\n        /* \"#utility.yul\":6550:6551   */\n      0x00\n        /* \"#utility.yul\":6543:6631   */\n      mstore\n        /* \"#utility.yul\":6650:6654   */\n      0x32\n        /* \"#utility.yul\":6647:6648   */\n      0x04\n        /* \"#utility.yul\":6640:6655   */\n      mstore\n        /* \"#utility.yul\":6674:6678   */\n      0x24\n        /* \"#utility.yul\":6671:6672   */\n      0x00\n        /* \"#utility.yul\":6664:6679   */\n      revert\n        /* \"#utility.yul\":6691:6871   */\n    tag_92:\n        /* \"#utility.yul\":6739:6816   */\n      0x4e487b7100000000000000000000000000000000000000000000000000000000\n        /* \"#utility.yul\":6736:6737   */\n      0x00\n        /* \"#utility.yul\":6729:6817   */\n      mstore\n        /* \"#utility.yul\":6836:6840   */\n      0x11\n        /* \"#utility.yul\":6833:6834   */\n      0x04\n        /* \"#utility.yul\":6826:6841   */\n      mstore\n        /* \"#utility.yul\":6860:6864   */\n      0x24\n        /* \"#utility.yul\":6857:6858   */\n      0x00\n        /* \"#utility.yul\":6850:6865   */\n      revert\n        /* \"#utility.yul\":6877:7068   */\n    tag_32:\n        /* \"#utility.yul\":6917:6920   */\n      0x00\n        /* \"#utility.yul\":6936:6956   */\n      tag_169\n        /* \"#utility.yul\":6954:6955   */\n      dup3\n        /* \"#utility.yul\":6936:6956   */\n      tag_79\n      jump\t// in\n    tag_169:\n        /* \"#utility.yul\":6931:6956   */\n      swap2\n      pop\n        /* \"#utility.yul\":6970:6990   */\n      tag_170\n        /* \"#utility.yul\":6988:6989   */\n      dup4\n        /* \"#utility.yul\":6970:6990   */\n      tag_79\n      jump\t// in\n    tag_170:\n        /* \"#utility.yul\":6965:6990   */\n      swap3\n      pop\n        /* \"#utility.yul\":7013:7014   */\n      dup3\n        /* \"#utility.yul\":7010:7011   */\n      dup3\n        /* \"#utility.yul\":7006:7015   */\n      add\n        /* \"#utility.yul\":6999:7015   */\n      swap1\n      pop\n        /* \"#utility.yul\":7034:7037   */\n      dup1\n        /* \"#utility.yul\":7031:7032   */\n      dup3\n        /* \"#utility.yul\":7028:7038   */\n      gt\n        /* \"#utility.yul\":7025:7061   */\n      iszero\n      tag_171\n      jumpi\n        /* \"#utility.yul\":7041:7059   */\n      tag_172\n      tag_92\n      jump\t// in\n    tag_172:\n        /* \"#utility.yul\":7025:7061   */\n    tag_171:\n        /* \"#utility.yul\":6877:7068   */\n      swap3\n      swap2\n      pop\n      pop\n      jump\t// out\n        /* \"#utility.yul\":7074:7170   */\n    tag_93:\n        /* \"#utility.yul\":7111:7118   */\n      0x00\n        /* \"#utility.yul\":7140:7164   */\n      tag_174\n        /* \"#utility.yul\":7158:7163   */\n      dup3\n        /* \"#utility.yul\":7140:7164   */\n      tag_81\n      jump\t// in\n    tag_174:\n        /* \"#utility.yul\":7129:7164   */\n      swap1\n      pop\n        /* \"#utility.yul\":7074:7170   */\n      swap2\n      swap1\n      pop\n      jump\t// out\n        /* \"#utility.yul\":7176:7294   */\n    tag_94:\n        /* \"#utility.yul\":7263:7287   */\n      tag_176\n        /* \"#utility.yul\":7281:7286   */\n      dup2\n        /* \"#utility.yul\":7263:7287   */\n      tag_93\n      jump\t// in\n    tag_176:\n        /* \"#utility.yul\":7258:7261   */\n      dup3\n        /* \"#utility.yul\":7251:7288   */\n      mstore\n        /* \"#utility.yul\":7176:7294   */\n      pop\n      pop\n      jump\t// out\n        /* \"#utility.yul\":7300:7632   */\n    tag_34:\n        /* \"#utility.yul\":7421:7425   */\n      0x00\n        /* \"#utility.yul\":7459:7461   */\n      0x40\n        /* \"#utility.yul\":7448:7457   */\n      dup3\n        /* \"#utility.yul\":7444:7462   */\n      add\n        /* \"#utility.yul\":7436:7462   */\n      swap1\n      pop\n        /* \"#utility.yul\":7472:7543   */\n      tag_178\n        /* \"#utility.yul\":7540:7541   */\n      0x00\n        /* \"#utility.yul\":7529:7538   */\n      dup4\n        /* \"#utility.yul\":7525:7542   */\n      add\n        /* \"#utility.yul\":7516:7522   */\n      dup6\n        /* \"#utility.yul\":7472:7543   */\n      tag_94\n      jump\t// in\n    tag_178:\n        /* \"#utility.yul\":7553:7625   */\n      tag_179\n        /* \"#utility.yul\":7621:7623   */\n      0x20\n        /* \"#utility.yul\":7610:7619   */\n      dup4\n        /* \"#utility.yul\":7606:7624   */\n      add\n        /* \"#utility.yul\":7597:7603   */\n      dup5\n        /* \"#utility.yul\":7553:7625   */\n      tag_94\n      jump\t// in\n    tag_179:\n        /* \"#utility.yul\":7300:7632   */\n      swap4\n      swap3\n      pop\n      pop\n      pop\n      jump\t// out\n        /* \"#utility.yul\":7638:7760   */\n    tag_95:\n        /* \"#utility.yul\":7711:7735   */\n      tag_181\n        /* \"#utility.yul\":7729:7734   */\n      dup2\n        /* \"#utility.yul\":7711:7735   */\n      tag_79\n      jump\t// in\n    tag_181:\n        /* \"#utility.yul\":7704:7709   */\n      dup2\n        /* \"#utility.yul\":7701:7736   */\n      eq\n        /* \"#utility.yul\":7691:7754   */\n      tag_182\n      jumpi\n        /* \"#utility.yul\":7750:7751   */\n      0x00\n        /* \"#utility.yul\":7747:7748   */\n      dup1\n        /* \"#utility.yul\":7740:7752   */\n      revert\n        /* \"#utility.yul\":7691:7754   */\n    tag_182:\n        /* \"#utility.yul\":7638:7760   */\n      pop\n      jump\t// out\n        /* \"#utility.yul\":7766:7909   */\n    tag_96:\n        /* \"#utility.yul\":7823:7828   */\n      0x00\n        /* \"#utility.yul\":7854:7860   */\n      dup2\n        /* \"#utility.yul\":7848:7861   */\n      mload\n        /* \"#utility.yul\":7839:7861   */\n      swap1\n      pop\n        /* \"#utility.yul\":7870:7903   */\n      tag_184\n        /* \"#utility.yul\":7897:7902   */\n      dup2\n        /* \"#utility.yul\":7870:7903   */\n      tag_95\n      jump\t// in\n    tag_184:\n        /* \"#utility.yul\":7766:7909   */\n      swap3\n      swap2\n      pop\n      pop\n      jump\t// out\n        /* \"#utility.yul\":7915:8266   */\n    tag_38:\n        /* \"#utility.yul\":7985:7991   */\n      0x00\n        /* \"#utility.yul\":8034:8036   */\n      0x20\n        /* \"#utility.yul\":8022:8031   */\n      dup3\n        /* \"#utility.yul\":8013:8020   */\n      dup5\n        /* \"#utility.yul\":8009:8032   */\n      sub\n        /* \"#utility.yul\":8005:8037   */\n      slt\n        /* \"#utility.yul\":8002:8121   */\n      iszero\n      tag_186\n      jumpi\n        /* \"#utility.yul\":8040:8119   */\n      tag_187\n      tag_72\n      jump\t// in\n    tag_187:\n        /* \"#utility.yul\":8002:8121   */\n    tag_186:\n        /* \"#utility.yul\":8160:8161   */\n      0x00\n        /* \"#utility.yul\":8185:8249   */\n      tag_188\n        /* \"#utility.yul\":8241:8248   */\n      dup5\n        /* \"#utility.yul\":8232:8238   */\n      dup3\n        /* \"#utility.yul\":8221:8230   */\n      dup6\n        /* \"#utility.yul\":8217:8239   */\n      add\n        /* \"#utility.yul\":8185:8249   */\n      tag_96\n      jump\t// in\n    tag_188:\n        /* \"#utility.yul\":8175:8249   */\n      swap2\n      pop\n        /* \"#utility.yul\":8131:8259   */\n      pop\n        /* \"#utility.yul\":7915:8266   */\n      swap3\n      swap2\n      pop\n      pop\n      jump\t// out\n        /* \"#utility.yul\":8272:8450   */\n    tag_97:\n        /* \"#utility.yul\":8412:8442   */\n      0x496e73756666696369656e7420746f6b656e20616c6c6f77616e636500000000\n        /* \"#utility.yul\":8408:8409   */\n      0x00\n        /* \"#utility.yul\":8400:8406   */\n      dup3\n        /* \"#utility.yul\":8396:8410   */\n      add\n        /* \"#utility.yul\":8389:8443   */\n      mstore\n        /* \"#utility.yul\":8272:8450   */\n      pop\n      jump\t// out\n        /* \"#utility.yul\":8456:8822   */\n    tag_98:\n        /* \"#utility.yul\":8598:8601   */\n      0x00\n        /* \"#utility.yul\":8619:8686   */\n      tag_191\n        /* \"#utility.yul\":8683:8685   */\n      0x1c\n        /* \"#utility.yul\":8678:8681   */\n      dup4\n        /* \"#utility.yul\":8619:8686   */\n      tag_87\n      jump\t// in\n    tag_191:\n        /* \"#utility.yul\":8612:8686   */\n      swap2\n      pop\n        /* \"#utility.yul\":8695:8788   */\n      tag_192\n        /* \"#utility.yul\":8784:8787   */\n      dup3\n        /* \"#utility.yul\":8695:8788   */\n      tag_97\n      jump\t// in\n    tag_192:\n        /* \"#utility.yul\":8813:8815   */\n      0x20\n        /* \"#utility.yul\":8808:8811   */\n      dup3\n        /* \"#utility.yul\":8804:8816   */\n      add\n        /* \"#utility.yul\":8797:8816   */\n      swap1\n      pop\n        /* \"#utility.yul\":8456:8822   */\n      swap2\n      swap1\n      pop\n      jump\t// out\n        /* \"#utility.yul\":8828:9247   */\n    tag_41:\n        /* \"#utility.yul\":8994:8998   */\n      0x00\n        /* \"#utility.yul\":9032:9034   */\n      0x20\n        /* \"#utility.yul\":9021:9030   */\n      dup3\n        /* \"#utility.yul\":9017:9035   */\n      add\n        /* \"#utility.yul\":9009:9035   */\n      swap1\n      pop\n        /* \"#utility.yul\":9081:9090   */\n      dup2\n        /* \"#utility.yul\":9075:9079   */\n      dup2\n        /* \"#utility.yul\":9071:9091   */\n      sub\n        /* \"#utility.yul\":9067:9068   */\n      0x00\n        /* \"#utility.yul\":9056:9065   */\n      dup4\n        /* \"#utility.yul\":9052:9069   */\n      add\n        /* \"#utility.yul\":9045:9092   */\n      mstore\n        /* \"#utility.yul\":9109:9240   */\n      tag_194\n        /* \"#utility.yul\":9235:9239   */\n      dup2\n        /* \"#utility.yul\":9109:9240   */\n      tag_98\n      jump\t// in\n    tag_194:\n        /* \"#utility.yul\":9101:9240   */\n      swap1\n      pop\n        /* \"#utility.yul\":8828:9247   */\n      swap2\n      swap1\n      pop\n      jump\t// out\n        /* \"#utility.yul\":9253:9375   */\n    tag_99:\n        /* \"#utility.yul\":9326:9350   */\n      tag_196\n        /* \"#utility.yul\":9344:9349   */\n      dup2\n        /* \"#utility.yul\":9326:9350   */\n      tag_93\n      jump\t// in\n    tag_196:\n        /* \"#utility.yul\":9319:9324   */\n      dup2\n        /* \"#utility.yul\":9316:9351   */\n      eq\n        /* \"#utility.yul\":9306:9369   */\n      tag_197\n      jumpi\n        /* \"#utility.yul\":9365:9366   */\n      0x00\n        /* \"#utility.yul\":9362:9363   */\n      dup1\n        /* \"#utility.yul\":9355:9367   */\n      revert\n        /* \"#utility.yul\":9306:9369   */\n    tag_197:\n        /* \"#utility.yul\":9253:9375   */\n      pop\n      jump\t// out\n        /* \"#utility.yul\":9381:9520   */\n    tag_100:\n        /* \"#utility.yul\":9427:9432   */\n      0x00\n        /* \"#utility.yul\":9465:9471   */\n      dup2\n        /* \"#utility.yul\":9452:9472   */\n      calldataload\n        /* \"#utility.yul\":9443:9472   */\n      swap1\n      pop\n        /* \"#utility.yul\":9481:9514   */\n      tag_199\n        /* \"#utility.yul\":9508:9513   */\n      dup2\n        /* \"#utility.yul\":9481:9514   */\n      tag_99\n      jump\t// in\n    tag_199:\n        /* \"#utility.yul\":9381:9520   */\n      swap3\n      swap2\n      pop\n      pop\n      jump\t// out\n        /* \"#utility.yul\":9526:9855   */\n    tag_48:\n        /* \"#utility.yul\":9585:9591   */\n      0x00\n        /* \"#utility.yul\":9634:9636   */\n      0x20\n        /* \"#utility.yul\":9622:9631   */\n      dup3\n        /* \"#utility.yul\":9613:9620   */\n      dup5\n        /* \"#utility.yul\":9609:9632   */\n      sub\n        /* \"#utility.yul\":9605:9637   */\n      slt\n        /* \"#utility.yul\":9602:9721   */\n      iszero\n      tag_201\n      jumpi\n        /* \"#utility.yul\":9640:9719   */\n      tag_202\n      tag_72\n      jump\t// in\n    tag_202:\n        /* \"#utility.yul\":9602:9721   */\n    tag_201:\n        /* \"#utility.yul\":9760:9761   */\n      0x00\n        /* \"#utility.yul\":9785:9838   */\n      tag_203\n        /* \"#utility.yul\":9830:9837   */\n      dup5\n        /* \"#utility.yul\":9821:9827   */\n      dup3\n        /* \"#utility.yul\":9810:9819   */\n      dup6\n        /* \"#utility.yul\":9806:9828   */\n      add\n        /* \"#utility.yul\":9785:9838   */\n      tag_100\n      jump\t// in\n    tag_203:\n        /* \"#utility.yul\":9775:9838   */\n      swap2\n      pop\n        /* \"#utility.yul\":9731:9848   */\n      pop\n        /* \"#utility.yul\":9526:9855   */\n      swap3\n      swap2\n      pop\n      pop\n      jump\t// out\n        /* \"#utility.yul\":9861:10303   */\n    tag_52:\n        /* \"#utility.yul\":10010:10014   */\n      0x00\n        /* \"#utility.yul\":10048:10050   */\n      0x60\n        /* \"#utility.yul\":10037:10046   */\n      dup3\n        /* \"#utility.yul\":10033:10051   */\n      add\n        /* \"#utility.yul\":10025:10051   */\n      swap1\n      pop\n        /* \"#utility.yul\":10061:10132   */\n      tag_205\n        /* \"#utility.yul\":10129:10130   */\n      0x00\n        /* \"#utility.yul\":10118:10127   */\n      dup4\n        /* \"#utility.yul\":10114:10131   */\n      add\n        /* \"#utility.yul\":10105:10111   */\n      dup7\n        /* \"#utility.yul\":10061:10132   */\n      tag_94\n      jump\t// in\n    tag_205:\n        /* \"#utility.yul\":10142:10214   */\n      tag_206\n        /* \"#utility.yul\":10210:10212   */\n      0x20\n        /* \"#utility.yul\":10199:10208   */\n      dup4\n        /* \"#utility.yul\":10195:10213   */\n      add\n        /* \"#utility.yul\":10186:10192   */\n      dup6\n        /* \"#utility.yul\":10142:10214   */\n      tag_94\n      jump\t// in\n    tag_206:\n        /* \"#utility.yul\":10224:10296   */\n      tag_207\n        /* \"#utility.yul\":10292:10294   */\n      0x40\n        /* \"#utility.yul\":10281:10290   */\n      dup4\n        /* \"#utility.yul\":10277:10295   */\n      add\n        /* \"#utility.yul\":10268:10274   */\n      dup5\n        /* \"#utility.yul\":10224:10296   */\n      tag_80\n      jump\t// in\n    tag_207:\n        /* \"#utility.yul\":9861:10303   */\n      swap5\n      swap4\n      pop\n      pop\n      pop\n      pop\n      jump\t// out\n        /* \"#utility.yul\":10309:10399   */\n    tag_101:\n        /* \"#utility.yul\":10343:10350   */\n      0x00\n        /* \"#utility.yul\":10386:10391   */\n      dup2\n        /* \"#utility.yul\":10379:10392   */\n      iszero\n        /* \"#utility.yul\":10372:10393   */\n      iszero\n        /* \"#utility.yul\":10361:10393   */\n      swap1\n      pop\n        /* \"#utility.yul\":10309:10399   */\n      swap2\n      swap1\n      pop\n      jump\t// out\n        /* \"#utility.yul\":10405:10521   */\n    tag_102:\n        /* \"#utility.yul\":10475:10496   */\n      tag_210\n        /* \"#utility.yul\":10490:10495   */\n      dup2\n        /* \"#utility.yul\":10475:10496   */\n      tag_101\n      jump\t// in\n    tag_210:\n        /* \"#utility.yul\":10468:10473   */\n      dup2\n        /* \"#utility.yul\":10465:10497   */\n      eq\n        /* \"#utility.yul\":10455:10515   */\n      tag_211\n      jumpi\n        /* \"#utility.yul\":10511:10512   */\n      0x00\n        /* \"#utility.yul\":10508:10509   */\n      dup1\n        /* \"#utility.yul\":10501:10513   */\n      revert\n        /* \"#utility.yul\":10455:10515   */\n    tag_211:\n        /* \"#utility.yul\":10405:10521   */\n      pop\n      jump\t// out\n        /* \"#utility.yul\":10527:10664   */\n    tag_103:\n        /* \"#utility.yul\":10581:10586   */\n      0x00\n        /* \"#utility.yul\":10612:10618   */\n      dup2\n        /* \"#utility.yul\":10606:10619   */\n      mload\n        /* \"#utility.yul\":10597:10619   */\n      swap1\n      pop\n        /* \"#utility.yul\":10628:10658   */\n      tag_213\n        /* \"#utility.yul\":10652:10657   */\n      dup2\n        /* \"#utility.yul\":10628:10658   */\n      tag_102\n      jump\t// in\n    tag_213:\n        /* \"#utility.yul\":10527:10664   */\n      swap3\n      swap2\n      pop\n      pop\n      jump\t// out\n        /* \"#utility.yul\":10670:11015   */\n    tag_56:\n        /* \"#utility.yul\":10737:10743   */\n      0x00\n        /* \"#utility.yul\":10786:10788   */\n      0x20\n        /* \"#utility.yul\":10774:10783   */\n      dup3\n        /* \"#utility.yul\":10765:10772   */\n      dup5\n        /* \"#utility.yul\":10761:10784   */\n      sub\n        /* \"#utility.yul\":10757:10789   */\n      slt\n        /* \"#utility.yul\":10754:10873   */\n      iszero\n      tag_215\n      jumpi\n        /* \"#utility.yul\":10792:10871   */\n      tag_216\n      tag_72\n      jump\t// in\n    tag_216:\n        /* \"#utility.yul\":10754:10873   */\n    tag_215:\n        /* \"#utility.yul\":10912:10913   */\n      0x00\n        /* \"#utility.yul\":10937:10998   */\n      tag_217\n        /* \"#utility.yul\":10990:10997   */\n      dup5\n        /* \"#utility.yul\":10981:10987   */\n      dup3\n        /* \"#utility.yul\":10970:10979   */\n      dup6\n        /* \"#utility.yul\":10966:10988   */\n      add\n        /* \"#utility.yul\":10937:10998   */\n      tag_103\n      jump\t// in\n    tag_217:\n        /* \"#utility.yul\":10927:10998   */\n      swap2\n      pop\n        /* \"#utility.yul\":10883:11008   */\n      pop\n        /* \"#utility.yul\":10670:11015   */\n      swap3\n      swap2\n      pop\n      pop\n      jump\t// out\n\n    auxdata: 0xa2646970667358221220cabd42c0c8510a0cd03e54698c6e82a38f3adc420cc8e0804b0346b4412fa27664736f6c634300081a0033\n}\n",
				"bytecode": {
					"linkReferences": {},
					"object": "608060405234801561000f575f80fd5b50604051610b6f380380610b6f833981810160405281019061003191906100e5565b805f806101000a81548173ffffffffffffffffffffffffffffffffffffffff021916908373ffffffffffffffffffffffffffffffffffffffff16021790555050610110565b5f80fd5b5f73ffffffffffffffffffffffffffffffffffffffff82169050919050565b5f6100a38261007a565b9050919050565b5f6100b482610099565b9050919050565b6100c4816100aa565b81146100ce575f80fd5b50565b5f815190506100df816100bb565b92915050565b5f602082840312156100fa576100f9610076565b5b5f610107848285016100d1565b91505092915050565b610a528061011d5f395ff3fe608060405234801561000f575f80fd5b506004361061003f575f3560e01c8063bb4c9f0b14610043578063cfdbf2541461005f578063fc0c546a1461007d575b5f80fd5b61005d60048036038101906100589190610559565b61009b565b005b610067610473565b60405161007491906105ef565b60405180910390f35b610085610478565b6040516100929190610682565b60405180910390f35b8181905084849050146100e3576040517f08c379a00000000000000000000000000000000000000000000000000000000081526004016100da9061071b565b60405180910390fd5b600284849050111561012a576040517f08c379a000000000000000000000000000000000000000000000000000000000815260040161012190610783565b60405180910390fd5b5f805b8585905081101561016c5783838281811061014b5761014a6107a1565b5b905060200201358261015d91906107fb565b9150808060010191505061012d565b50805f8054906101000a900473ffffffffffffffffffffffffffffffffffffffff1673ffffffffffffffffffffffffffffffffffffffff1663dd62ed3e33306040518363ffffffff1660e01b81526004016101c892919061084e565b602060405180830381865afa1580156101e3573d5f803e3d5ffd5b505050506040513d601f19601f82011682018060405250810190610207919061089f565b1015610248576040517f08c379a000000000000000000000000000000000000000000000000000000000815260040161023f90610914565b60405180910390fd5b5f5b8585905081101561046b575f805f9054906101000a900473ffffffffffffffffffffffffffffffffffffffff1673ffffffffffffffffffffffffffffffffffffffff166323b872dd338989868181106102a6576102a56107a1565b5b90506020020160208101906102bb919061095c565b8888878181106102ce576102cd6107a1565b5b905060200201356040518463ffffffff1660e01b81526004016102f393929190610987565b6020604051808303815f875af115801561030f573d5f803e3d5ffd5b505050506040513d601f19601f8201168201806040525081019061033391906109f1565b905080156103ce5786868381811061034e5761034d6107a1565b5b9050602002016020810190610363919061095c565b73ffffffffffffffffffffffffffffffffffffffff167fc12c845aa612685ce7eba62f9a39aa76cd74c79886ba529d72a23d31690d8c738686858181106103ad576103ac6107a1565b5b905060200201356040516103c191906105ef565b60405180910390a261045d565b8686838181106103e1576103e06107a1565b5b90506020020160208101906103f6919061095c565b73ffffffffffffffffffffffffffffffffffffffff167f1c43b9761b3fba5321ca8212bfc231945f668ccc0c446f333999eea9ce8fda818686858181106104405761043f6107a1565b5b9050602002013560405161045491906105ef565b60405180910390a25b50808060010191505061024a565b505050505050565b600281565b5f8054906101000a900473ffffffffffffffffffffffffffffffffffffffff1681565b5f80fd5b5f80fd5b5f80fd5b5f80fd5b5f80fd5b5f8083601f8401126104c4576104c36104a3565b5b8235905067ffffffffffffffff8111156104e1576104e06104a7565b5b6020830191508360208202830111156104fd576104fc6104ab565b5b9250929050565b5f8083601f840112610519576105186104a3565b5b8235905067ffffffffffffffff811115610536576105356104a7565b5b602083019150836020820283011115610552576105516104ab565b5b9250929050565b5f805f80604085870312156105715761057061049b565b5b5f85013567ffffffffffffffff81111561058e5761058d61049f565b5b61059a878288016104af565b9450945050602085013567ffffffffffffffff8111156105bd576105bc61049f565b5b6105c987828801610504565b925092505092959194509250565b5f819050919050565b6105e9816105d7565b82525050565b5f6020820190506106025f8301846105e0565b92915050565b5f73ffffffffffffffffffffffffffffffffffffffff82169050919050565b5f819050919050565b5f61064a61064561064084610608565b610627565b610608565b9050919050565b5f61065b82610630565b9050919050565b5f61066c82610651565b9050919050565b61067c81610662565b82525050565b5f6020820190506106955f830184610673565b92915050565b5f82825260208201905092915050565b7f526563697069656e747320616e6420616d6f756e747320617272617973206d755f8201527f73742068617665207468652073616d65206c656e677468000000000000000000602082015250565b5f61070560378361069b565b9150610710826106ab565b604082019050919050565b5f6020820190508181035f830152610732816106f9565b9050919050565b7f42617463682073697a652065786365656473206d6178696d756d206c696d69745f82015250565b5f61076d60208361069b565b915061077882610739565b602082019050919050565b5f6020820190508181035f83015261079a81610761565b9050919050565b7f4e487b71000000000000000000000000000000000000000000000000000000005f52603260045260245ffd5b7f4e487b71000000000000000000000000000000000000000000000000000000005f52601160045260245ffd5b5f610805826105d7565b9150610810836105d7565b9250828201905080821115610828576108276107ce565b5b92915050565b5f61083882610608565b9050919050565b6108488161082e565b82525050565b5f6040820190506108615f83018561083f565b61086e602083018461083f565b9392505050565b61087e816105d7565b8114610888575f80fd5b50565b5f8151905061089981610875565b92915050565b5f602082840312156108b4576108b361049b565b5b5f6108c18482850161088b565b91505092915050565b7f496e73756666696369656e7420746f6b656e20616c6c6f77616e6365000000005f82015250565b5f6108fe601c8361069b565b9150610909826108ca565b602082019050919050565b5f6020820190508181035f83015261092b816108f2565b9050919050565b61093b8161082e565b8114610945575f80fd5b50565b5f8135905061095681610932565b92915050565b5f602082840312156109715761097061049b565b5b5f61097e84828501610948565b91505092915050565b5f60608201905061099a5f83018661083f565b6109a7602083018561083f565b6109b460408301846105e0565b949350505050565b5f8115159050919050565b6109d0816109bc565b81146109da575f80fd5b50565b5f815190506109eb816109c7565b92915050565b5f60208284031215610a0657610a0561049b565b5b5f610a13848285016109dd565b9150509291505056fea2646970667358221220cabd42c0c8510a0cd03e54698c6e82a38f3adc420cc8e0804b0346b4412fa27664736f6c634300081a0033",
					"opcodes": "PUSH1 0x80 PUSH1 0x40 MSTORE CALLVALUE DUP1 ISZERO PUSH2 0xF JUMPI PUSH0 DUP1 REVERT JUMPDEST POP PUSH1 0x40 MLOAD PUSH2 0xB6F CODESIZE SUB DUP1 PUSH2 0xB6F DUP4 CODECOPY DUP2 DUP2 ADD PUSH1 0x40 MSTORE DUP2 ADD SWAP1 PUSH2 0x31 SWAP2 SWAP1 PUSH2 0xE5 JUMP JUMPDEST DUP1 PUSH0 DUP1 PUSH2 0x100 EXP DUP2 SLOAD DUP2 PUSH20 0xFFFFFFFFFFFFFFFFFFFFFFFFFFFFFFFFFFFFFFFF MUL NOT AND SWAP1 DUP4 PUSH20 0xFFFFFFFFFFFFFFFFFFFFFFFFFFFFFFFFFFFFFFFF AND MUL OR SWAP1 SSTORE POP POP PUSH2 0x110 JUMP JUMPDEST PUSH0 DUP1 REVERT JUMPDEST PUSH0 PUSH20 0xFFFFFFFFFFFFFFFFFFFFFFFFFFFFFFFFFFFFFFFF DUP3 AND SWAP1 POP SWAP2 SWAP1 POP JUMP JUMPDEST PUSH0 PUSH2 0xA3 DUP3 PUSH2 0x7A JUMP JUMPDEST SWAP1 POP SWAP2 SWAP1 POP JUMP JUMPDEST PUSH0 PUSH2 0xB4 DUP3 PUSH2 0x99 JUMP JUMPDEST SWAP1 POP SWAP2 SWAP1 POP JUMP JUMPDEST PUSH2 0xC4 DUP2 PUSH2 0xAA JUMP JUMPDEST DUP2 EQ PUSH2 0xCE JUMPI PUSH0 DUP1 REVERT JUMPDEST POP JUMP JUMPDEST PUSH0 DUP2 MLOAD SWAP1 POP PUSH2 0xDF DUP2 PUSH2 0xBB JUMP JUMPDEST SWAP3 SWAP2 POP POP JUMP JUMPDEST PUSH0 PUSH1 0x20 DUP3 DUP5 SUB SLT ISZERO PUSH2 0xFA JUMPI PUSH2 0xF9 PUSH2 0x76 JUMP JUMPDEST JUMPDEST PUSH0 PUSH2 0x107 DUP5 DUP3 DUP6 ADD PUSH2 0xD1 JUMP JUMPDEST SWAP2 POP POP SWAP3 SWAP2 POP POP JUMP JUMPDEST PUSH2 0xA52 DUP1 PUSH2 0x11D PUSH0 CODECOPY PUSH0 RETURN INVALID PUSH1 0x80 PUSH1 0x40 MSTORE CALLVALUE DUP1 ISZERO PUSH2 0xF JUMPI PUSH0 DUP1 REVERT JUMPDEST POP PUSH1 0x4 CALLDATASIZE LT PUSH2 0x3F JUMPI PUSH0 CALLDATALOAD PUSH1 0xE0 SHR DUP1 PUSH4 0xBB4C9F0B EQ PUSH2 0x43 JUMPI DUP1 PUSH4 0xCFDBF254 EQ PUSH2 0x5F JUMPI DUP1 PUSH4 0xFC0C546A EQ PUSH2 0x7D JUMPI JUMPDEST PUSH0 DUP1 REVERT JUMPDEST PUSH2 0x5D PUSH1 0x4 DUP1 CALLDATASIZE SUB DUP2 ADD SWAP1 PUSH2 0x58 SWAP2 SWAP1 PUSH2 0x559 JUMP JUMPDEST PUSH2 0x9B JUMP JUMPDEST STOP JUMPDEST PUSH2 0x67 PUSH2 0x473 JUMP JUMPDEST PUSH1 0x40 MLOAD PUSH2 0x74 SWAP2 SWAP1 PUSH2 0x5EF JUMP JUMPDEST PUSH1 0x40 MLOAD DUP1 SWAP2 SUB SWAP1 RETURN JUMPDEST PUSH2 0x85 PUSH2 0x478 JUMP JUMPDEST PUSH1 0x40 MLOAD PUSH2 0x92 SWAP2 SWAP1 PUSH2 0x682 JUMP JUMPDEST PUSH1 0x40 MLOAD DUP1 SWAP2 SUB SWAP1 RETURN JUMPDEST DUP2 DUP2 SWAP1 POP DUP5 DUP5 SWAP1 POP EQ PUSH2 0xE3 JUMPI PUSH1 0x40 MLOAD PUSH32 0x8C379A000000000000000000000000000000000000000000000000000000000 DUP2 MSTORE PUSH1 0x4 ADD PUSH2 0xDA SWAP1 PUSH2 0x71B JUMP JUMPDEST PUSH1 0x40 MLOAD DUP1 SWAP2 SUB SWAP1 REVERT JUMPDEST PUSH1 0x2 DUP5 DUP5 SWAP1 POP GT ISZERO PUSH2 0x12A JUMPI PUSH1 0x40 MLOAD PUSH32 0x8C379A000000000000000000000000000000000000000000000000000000000 DUP2 MSTORE PUSH1 0x4 ADD PUSH2 0x121 SWAP1 PUSH2 0x783 JUMP JUMPDEST PUSH1 0x40 MLOAD DUP1 SWAP2 SUB SWAP1 REVERT JUMPDEST PUSH0 DUP1 JUMPDEST DUP6 DUP6 SWAP1 POP DUP2 LT ISZERO PUSH2 0x16C JUMPI DUP4 DUP4 DUP3 DUP2 DUP2 LT PUSH2 0x14B JUMPI PUSH2 0x14A PUSH2 0x7A1 JUMP JUMPDEST JUMPDEST SWAP1 POP PUSH1 0x20 MUL ADD CALLDATALOAD DUP3 PUSH2 0x15D SWAP2 SWAP1 PUSH2 0x7FB JUMP JUMPDEST SWAP2 POP DUP1 DUP1 PUSH1 0x1 ADD SWAP2 POP POP PUSH2 0x12D JUMP JUMPDEST POP DUP1 PUSH0 DUP1 SLOAD SWAP1 PUSH2 0x100 EXP SWAP1 DIV PUSH20 0xFFFFFFFFFFFFFFFFFFFFFFFFFFFFFFFFFFFFFFFF AND PUSH20 0xFFFFFFFFFFFFFFFFFFFFFFFFFFFFFFFFFFFFFFFF AND PUSH4 0xDD62ED3E CALLER ADDRESS PUSH1 0x40 MLOAD DUP4 PUSH4 0xFFFFFFFF AND PUSH1 0xE0 SHL DUP2 MSTORE PUSH1 0x4 ADD PUSH2 0x1C8 SWAP3 SWAP2 SWAP1 PUSH2 0x84E JUMP JUMPDEST PUSH1 0x20 PUSH1 0x40 MLOAD DUP1 DUP4 SUB DUP2 DUP7 GAS STATICCALL ISZERO DUP1 ISZERO PUSH2 0x1E3 JUMPI RETURNDATASIZE PUSH0 DUP1 RETURNDATACOPY RETURNDATASIZE PUSH0 REVERT JUMPDEST POP POP POP POP PUSH1 0x40 MLOAD RETURNDATASIZE PUSH1 0x1F NOT PUSH1 0x1F DUP3 ADD AND DUP3 ADD DUP1 PUSH1 0x40 MSTORE POP DUP2 ADD SWAP1 PUSH2 0x207 SWAP2 SWAP1 PUSH2 0x89F JUMP JUMPDEST LT ISZERO PUSH2 0x248 JUMPI PUSH1 0x40 MLOAD PUSH32 0x8C379A000000000000000000000000000000000000000000000000000000000 DUP2 MSTORE PUSH1 0x4 ADD PUSH2 0x23F SWAP1 PUSH2 0x914 JUMP JUMPDEST PUSH1 0x40 MLOAD DUP1 SWAP2 SUB SWAP1 REVERT JUMPDEST PUSH0 JUMPDEST DUP6 DUP6 SWAP1 POP DUP2 LT ISZERO PUSH2 0x46B JUMPI PUSH0 DUP1 PUSH0 SWAP1 SLOAD SWAP1 PUSH2 0x100 EXP SWAP1 DIV PUSH20 0xFFFFFFFFFFFFFFFFFFFFFFFFFFFFFFFFFFFFFFFF AND PUSH20 0xFFFFFFFFFFFFFFFFFFFFFFFFFFFFFFFFFFFFFFFF AND PUSH4 0x23B872DD CALLER DUP10 DUP10 DUP7 DUP2 DUP2 LT PUSH2 0x2A6 JUMPI PUSH2 0x2A5 PUSH2 0x7A1 JUMP JUMPDEST JUMPDEST SWAP1 POP PUSH1 0x20 MUL ADD PUSH1 0x20 DUP2 ADD SWAP1 PUSH2 0x2BB SWAP2 SWAP1 PUSH2 0x95C JUMP JUMPDEST DUP9 DUP9 DUP8 DUP2 DUP2 LT PUSH2 0x2CE JUMPI PUSH2 0x2CD PUSH2 0x7A1 JUMP JUMPDEST JUMPDEST SWAP1 POP PUSH1 0x20 MUL ADD CALLDATALOAD PUSH1 0x40 MLOAD DUP5 PUSH4 0xFFFFFFFF AND PUSH1 0xE0 SHL DUP2 MSTORE PUSH1 0x4 ADD PUSH2 0x2F3 SWAP4 SWAP3 SWAP2 SWAP1 PUSH2 0x987 JUMP JUMPDEST PUSH1 0x20 PUSH1 0x40 MLOAD DUP1 DUP4 SUB DUP2 PUSH0 DUP8 GAS CALL ISZERO DUP1 ISZERO PUSH2 0x30F JUMPI RETURNDATASIZE PUSH0 DUP1 RETURNDATACOPY RETURNDATASIZE PUSH0 REVERT JUMPDEST POP POP POP POP PUSH1 0x40 MLOAD RETURNDATASIZE PUSH1 0x1F NOT PUSH1 0x1F DUP3 ADD AND DUP3 ADD DUP1 PUSH1 0x40 MSTORE POP DUP2 ADD SWAP1 PUSH2 0x333 SWAP2 SWAP1 PUSH2 0x9F1 JUMP JUMPDEST SWAP1 POP DUP1 ISZERO PUSH2 0x3CE JUMPI DUP7 DUP7 DUP4 DUP2 DUP2 LT PUSH2 0x34E JUMPI PUSH2 0x34D PUSH2 0x7A1 JUMP JUMPDEST JUMPDEST SWAP1 POP PUSH1 0x20 MUL ADD PUSH1 0x20 DUP2 ADD SWAP1 PUSH2 0x363 SWAP2 SWAP1 PUSH2 0x95C JUMP JUMPDEST PUSH20 0xFFFFFFFFFFFFFFFFFFFFFFFFFFFFFFFFFFFFFFFF AND PUSH32 0xC12C845AA612685CE7EBA62F9A39AA76CD74C79886BA529D72A23D31690D8C73 DUP7 DUP7 DUP6 DUP2 DUP2 LT PUSH2 0x3AD JUMPI PUSH2 0x3AC PUSH2 0x7A1 JUMP JUMPDEST JUMPDEST SWAP1 POP PUSH1 0x20 MUL ADD CALLDATALOAD PUSH1 0x40 MLOAD PUSH2 0x3C1 SWAP2 SWAP1 PUSH2 0x5EF JUMP JUMPDEST PUSH1 0x40 MLOAD DUP1 SWAP2 SUB SWAP1 LOG2 PUSH2 0x45D JUMP JUMPDEST DUP7 DUP7 DUP4 DUP2 DUP2 LT PUSH2 0x3E1 JUMPI PUSH2 0x3E0 PUSH2 0x7A1 JUMP JUMPDEST JUMPDEST SWAP1 POP PUSH1 0x20 MUL ADD PUSH1 0x20 DUP2 ADD SWAP1 PUSH2 0x3F6 SWAP2 SWAP1 PUSH2 0x95C JUMP JUMPDEST PUSH20 0xFFFFFFFFFFFFFFFFFFFFFFFFFFFFFFFFFFFFFFFF AND PUSH32 0x1C43B9761B3FBA5321CA8212BFC231945F668CCC0C446F333999EEA9CE8FDA81 DUP7 DUP7 DUP6 DUP2 DUP2 LT PUSH2 0x440 JUMPI PUSH2 0x43F PUSH2 0x7A1 JUMP JUMPDEST JUMPDEST SWAP1 POP PUSH1 0x20 MUL ADD CALLDATALOAD PUSH1 0x40 MLOAD PUSH2 0x454 SWAP2 SWAP1 PUSH2 0x5EF JUMP JUMPDEST PUSH1 0x40 MLOAD DUP1 SWAP2 SUB SWAP1 LOG2 JUMPDEST POP DUP1 DUP1 PUSH1 0x1 ADD SWAP2 POP POP PUSH2 0x24A JUMP JUMPDEST POP POP POP POP POP POP JUMP JUMPDEST PUSH1 0x2 DUP2 JUMP JUMPDEST PUSH0 DUP1 SLOAD SWAP1 PUSH2 0x100 EXP SWAP1 DIV PUSH20 0xFFFFFFFFFFFFFFFFFFFFFFFFFFFFFFFFFFFFFFFF AND DUP2 JUMP JUMPDEST PUSH0 DUP1 REVERT JUMPDEST PUSH0 DUP1 REVERT JUMPDEST PUSH0 DUP1 REVERT JUMPDEST PUSH0 DUP1 REVERT JUMPDEST PUSH0 DUP1 REVERT JUMPDEST PUSH0 DUP1 DUP4 PUSH1 0x1F DUP5 ADD SLT PUSH2 0x4C4 JUMPI PUSH2 0x4C3 PUSH2 0x4A3 JUMP JUMPDEST JUMPDEST DUP3 CALLDATALOAD SWAP1 POP PUSH8 0xFFFFFFFFFFFFFFFF DUP2 GT ISZERO PUSH2 0x4E1 JUMPI PUSH2 0x4E0 PUSH2 0x4A7 JUMP JUMPDEST JUMPDEST PUSH1 0x20 DUP4 ADD SWAP2 POP DUP4 PUSH1 0x20 DUP3 MUL DUP4 ADD GT ISZERO PUSH2 0x4FD JUMPI PUSH2 0x4FC PUSH2 0x4AB JUMP JUMPDEST JUMPDEST SWAP3 POP SWAP3 SWAP1 POP JUMP JUMPDEST PUSH0 DUP1 DUP4 PUSH1 0x1F DUP5 ADD SLT PUSH2 0x519 JUMPI PUSH2 0x518 PUSH2 0x4A3 JUMP JUMPDEST JUMPDEST DUP3 CALLDATALOAD SWAP1 POP PUSH8 0xFFFFFFFFFFFFFFFF DUP2 GT ISZERO PUSH2 0x536 JUMPI PUSH2 0x535 PUSH2 0x4A7 JUMP JUMPDEST JUMPDEST PUSH1 0x20 DUP4 ADD SWAP2 POP DUP4 PUSH1 0x20 DUP3 MUL DUP4 ADD GT ISZERO PUSH2 0x552 JUMPI PUSH2 0x551 PUSH2 0x4AB JUMP JUMPDEST JUMPDEST SWAP3 POP SWAP3 SWAP1 POP JUMP JUMPDEST PUSH0 DUP1 PUSH0 DUP1 PUSH1 0x40 DUP6 DUP8 SUB SLT ISZERO PUSH2 0x571 JUMPI PUSH2 0x570 PUSH2 0x49B JUMP JUMPDEST JUMPDEST PUSH0 DUP6 ADD CALLDATALOAD PUSH8 0xFFFFFFFFFFFFFFFF DUP2 GT ISZERO PUSH2 0x58E JUMPI PUSH2 0x58D PUSH2 0x49F JUMP JUMPDEST JUMPDEST PUSH2 0x59A DUP8 DUP3 DUP9 ADD PUSH2 0x4AF JUMP JUMPDEST SWAP5 POP SWAP5 POP POP PUSH1 0x20 DUP6 ADD CALLDATALOAD PUSH8 0xFFFFFFFFFFFFFFFF DUP2 GT ISZERO PUSH2 0x5BD JUMPI PUSH2 0x5BC PUSH2 0x49F JUMP JUMPDEST JUMPDEST PUSH2 0x5C9 DUP8 DUP3 DUP9 ADD PUSH2 0x504 JUMP JUMPDEST SWAP3 POP SWAP3 POP POP SWAP3 SWAP6 SWAP2 SWAP5 POP SWAP3 POP JUMP JUMPDEST PUSH0 DUP2 SWAP1 POP SWAP2 SWAP1 POP JUMP JUMPDEST PUSH2 0x5E9 DUP2 PUSH2 0x5D7 JUMP JUMPDEST DUP3 MSTORE POP POP JUMP JUMPDEST PUSH0 PUSH1 0x20 DUP3 ADD SWAP1 POP PUSH2 0x602 PUSH0 DUP4 ADD DUP5 PUSH2 0x5E0 JUMP JUMPDEST SWAP3 SWAP2 POP POP JUMP JUMPDEST PUSH0 PUSH20 0xFFFFFFFFFFFFFFFFFFFFFFFFFFFFFFFFFFFFFFFF DUP3 AND SWAP1 POP SWAP2 SWAP1 POP JUMP JUMPDEST PUSH0 DUP2 SWAP1 POP SWAP2 SWAP1 POP JUMP JUMPDEST PUSH0 PUSH2 0x64A PUSH2 0x645 PUSH2 0x640 DUP5 PUSH2 0x608 JUMP JUMPDEST PUSH2 0x627 JUMP JUMPDEST PUSH2 0x608 JUMP JUMPDEST SWAP1 POP SWAP2 SWAP1 POP JUMP JUMPDEST PUSH0 PUSH2 0x65B DUP3 PUSH2 0x630 JUMP JUMPDEST SWAP1 POP SWAP2 SWAP1 POP JUMP JUMPDEST PUSH0 PUSH2 0x66C DUP3 PUSH2 0x651 JUMP JUMPDEST SWAP1 POP SWAP2 SWAP1 POP JUMP JUMPDEST PUSH2 0x67C DUP2 PUSH2 0x662 JUMP JUMPDEST DUP3 MSTORE POP POP JUMP JUMPDEST PUSH0 PUSH1 0x20 DUP3 ADD SWAP1 POP PUSH2 0x695 PUSH0 DUP4 ADD DUP5 PUSH2 0x673 JUMP JUMPDEST SWAP3 SWAP2 POP POP JUMP JUMPDEST PUSH0 DUP3 DUP3 MSTORE PUSH1 0x20 DUP3 ADD SWAP1 POP SWAP3 SWAP2 POP POP JUMP JUMPDEST PUSH32 0x526563697069656E747320616E6420616D6F756E747320617272617973206D75 PUSH0 DUP3 ADD MSTORE PUSH32 0x73742068617665207468652073616D65206C656E677468000000000000000000 PUSH1 0x20 DUP3 ADD MSTORE POP JUMP JUMPDEST PUSH0 PUSH2 0x705 PUSH1 0x37 DUP4 PUSH2 0x69B JUMP JUMPDEST SWAP2 POP PUSH2 0x710 DUP3 PUSH2 0x6AB JUMP JUMPDEST PUSH1 0x40 DUP3 ADD SWAP1 POP SWAP2 SWAP1 POP JUMP JUMPDEST PUSH0 PUSH1 0x20 DUP3 ADD SWAP1 POP DUP2 DUP2 SUB PUSH0 DUP4 ADD MSTORE PUSH2 0x732 DUP2 PUSH2 0x6F9 JUMP JUMPDEST SWAP1 POP SWAP2 SWAP1 POP JUMP JUMPDEST PUSH32 0x42617463682073697A652065786365656473206D6178696D756D206C696D6974 PUSH0 DUP3 ADD MSTORE POP JUMP JUMPDEST PUSH0 PUSH2 0x76D PUSH1 0x20 DUP4 PUSH2 0x69B JUMP JUMPDEST SWAP2 POP PUSH2 0x778 DUP3 PUSH2 0x739 JUMP JUMPDEST PUSH1 0x20 DUP3 ADD SWAP1 POP SWAP2 SWAP1 POP JUMP JUMPDEST PUSH0 PUSH1 0x20 DUP3 ADD SWAP1 POP DUP2 DUP2 SUB PUSH0 DUP4 ADD MSTORE PUSH2 0x79A DUP2 PUSH2 0x761 JUMP JUMPDEST SWAP1 POP SWAP2 SWAP1 POP JUMP JUMPDEST PUSH32 0x4E487B7100000000000000000000000000000000000000000000000000000000 PUSH0 MSTORE PUSH1 0x32 PUSH1 0x4 MSTORE PUSH1 0x24 PUSH0 REVERT JUMPDEST PUSH32 0x4E487B7100000000000000000000000000000000000000000000000000000000 PUSH0 MSTORE PUSH1 0x11 PUSH1 0x4 MSTORE PUSH1 0x24 PUSH0 REVERT JUMPDEST PUSH0 PUSH2 0x805 DUP3 PUSH2 0x5D7 JUMP JUMPDEST SWAP2 POP PUSH2 0x810 DUP4 PUSH2 0x5D7 JUMP JUMPDEST SWAP3 POP DUP3 DUP3 ADD SWAP1 POP DUP1 DUP3 GT ISZERO PUSH2 0x828 JUMPI PUSH2 0x827 PUSH2 0x7CE JUMP JUMPDEST JUMPDEST SWAP3 SWAP2 POP POP JUMP JUMPDEST PUSH0 PUSH2 0x838 DUP3 PUSH2 0x608 JUMP JUMPDEST SWAP1 POP SWAP2 SWAP1 POP JUMP JUMPDEST PUSH2 0x848 DUP2 PUSH2 0x82E JUMP JUMPDEST DUP3 MSTORE POP POP JUMP JUMPDEST PUSH0 PUSH1 0x40 DUP3 ADD SWAP1 POP PUSH2 0x861 PUSH0 DUP4 ADD DUP6 PUSH2 0x83F JUMP JUMPDEST PUSH2 0x86E PUSH1 0x20 DUP4 ADD DUP5 PUSH2 0x83F JUMP JUMPDEST SWAP4 SWAP3 POP POP POP JUMP JUMPDEST PUSH2 0x87E DUP2 PUSH2 0x5D7 JUMP JUMPDEST DUP2 EQ PUSH2 0x888 JUMPI PUSH0 DUP1 REVERT JUMPDEST POP JUMP JUMPDEST PUSH0 DUP2 MLOAD SWAP1 POP PUSH2 0x899 DUP2 PUSH2 0x875 JUMP JUMPDEST SWAP3 SWAP2 POP POP JUMP JUMPDEST PUSH0 PUSH1 0x20 DUP3 DUP5 SUB SLT ISZERO PUSH2 0x8B4 JUMPI PUSH2 0x8B3 PUSH2 0x49B JUMP JUMPDEST JUMPDEST PUSH0 PUSH2 0x8C1 DUP5 DUP3 DUP6 ADD PUSH2 0x88B JUMP JUMPDEST SWAP2 POP POP SWAP3 SWAP2 POP POP JUMP JUMPDEST PUSH32 0x496E73756666696369656E7420746F6B656E20616C6C6F77616E636500000000 PUSH0 DUP3 ADD MSTORE POP JUMP JUMPDEST PUSH0 PUSH2 0x8FE PUSH1 0x1C DUP4 PUSH2 0x69B JUMP JUMPDEST SWAP2 POP PUSH2 0x909 DUP3 PUSH2 0x8CA JUMP JUMPDEST PUSH1 0x20 DUP3 ADD SWAP1 POP SWAP2 SWAP1 POP JUMP JUMPDEST PUSH0 PUSH1 0x20 DUP3 ADD SWAP1 POP DUP2 DUP2 SUB PUSH0 DUP4 ADD MSTORE PUSH2 0x92B DUP2 PUSH2 0x8F2 JUMP JUMPDEST SWAP1 POP SWAP2 SWAP1 POP JUMP JUMPDEST PUSH2 0x93B DUP2 PUSH2 0x82E JUMP JUMPDEST DUP2 EQ PUSH2 0x945 JUMPI PUSH0 DUP1 REVERT JUMPDEST POP JUMP JUMPDEST PUSH0 DUP2 CALLDATALOAD SWAP1 POP PUSH2 0x956 DUP2 PUSH2 0x932 JUMP JUMPDEST SWAP3 SWAP2 POP POP JUMP JUMPDEST PUSH0 PUSH1 0x20 DUP3 DUP5 SUB SLT ISZERO PUSH2 0x971 JUMPI PUSH2 0x970 PUSH2 0x49B JUMP JUMPDEST JUMPDEST PUSH0 PUSH2 0x97E DUP5 DUP3 DUP6 ADD PUSH2 0x948 JUMP JUMPDEST SWAP2 POP POP SWAP3 SWAP2 POP POP JUMP JUMPDEST PUSH0 PUSH1 0x60 DUP3 ADD SWAP1 POP PUSH2 0x99A PUSH0 DUP4 ADD DUP7 PUSH2 0x83F JUMP JUMPDEST PUSH2 0x9A7 PUSH1 0x20 DUP4 ADD DUP6 PUSH2 0x83F JUMP JUMPDEST PUSH2 0x9B4 PUSH1 0x40 DUP4 ADD DUP5 PUSH2 0x5E0 JUMP JUMPDEST SWAP5 SWAP4 POP POP POP POP JUMP JUMPDEST PUSH0 DUP2 ISZERO ISZERO SWAP1 POP SWAP2 SWAP1 POP JUMP JUMPDEST PUSH2 0x9D0 DUP2 PUSH2 0x9BC JUMP JUMPDEST DUP2 EQ PUSH2 0x9DA JUMPI PUSH0 DUP1 REVERT JUMPDEST POP JUMP JUMPDEST PUSH0 DUP2 MLOAD SWAP1 POP PUSH2 0x9EB DUP2 PUSH2 0x9C7 JUMP JUMPDEST SWAP3 SWAP2 POP POP JUMP JUMPDEST PUSH0 PUSH1 0x20 DUP3 DUP5 SUB SLT ISZERO PUSH2 0xA06 JUMPI PUSH2 0xA05 PUSH2 0x49B JUMP JUMPDEST JUMPDEST PUSH0 PUSH2 0xA13 DUP5 DUP3 DUP6 ADD PUSH2 0x9DD JUMP JUMPDEST SWAP2 POP POP SWAP3 SWAP2 POP POP JUMP INVALID LOG2 PUSH5 0x6970667358 0x22 SLT KECCAK256 0xCA 0xBD TIMESTAMP 0xC0 0xC8 MLOAD EXP 0xC 0xD0 RETURNDATACOPY SLOAD PUSH10 0x8C6E82A38F3ADC420CC8 0xE0 DUP1 0x4B SUB CHAINID 0xB4 COINBASE 0x2F LOG2 PUSH23 0x64736F6C634300081A0033000000000000000000000000 "
				},
				"gasEstimates": {
					"creation": {
						"codeDepositCost": "528400",
						"executionCost": "infinite",
						"totalCost": "infinite"
					},
					"external": {
						"MAX_BATCH_SIZE()": "325",
						"multiSend(address[],uint256[])": "infinite",
						"token()": "infinite"
					}
				},
				"methodIdentifiers": {
					"MAX_BATCH_SIZE()": "cfdbf254",
					"multiSend(address[],uint256[])": "bb4c9f0b",
					"token()": "fc0c546a"
				}
			},
			"storageLayout": {
				"storage": [
					{
						"astId": 83,
						"contract": "contracts/MultiSend.sol:MultiSend",
						"label": "token",
						"offset": 0,
						"slot": "0",
						"type": "t_contract(IERC20)77"
					}
				],
				"types": {
					"t_contract(IERC20)77": {
						"encoding": "inplace",
						"label": "contract IERC20",
						"numberOfBytes": "20"
					}
				}
			},
			"userdoc": {
				"kind": "user",
				"methods": {},
				"version": 1
			}
		}
	}
}