{
	"contracts/MultiSend_flattened.sol": {
		"MultiSend": {
			"abi": [
				{
					"inputs": [
						{
							"internalType": "contract IERC20",
							"name": "_token",
							"type": "address"
						}
					],
					"stateMutability": "nonpayable",
					"type": "constructor"
				},
				{
					"anonymous": false,
					"inputs": [
						{
							"indexed": true,
							"internalType": "address",
							"name": "recipient",
							"type": "address"
						},
						{
							"indexed": false,
							"internalType": "uint256",
							"name": "amount",
							"type": "uint256"
						}
					],
					"name": "TransferFailed",
					"type": "event"
				},
				{
					"anonymous": false,
					"inputs": [
						{
							"indexed": true,
							"internalType": "address",
							"name": "recipient",
							"type": "address"
						},
						{
							"indexed": false,
							"internalType": "uint256",
							"name": "amount",
							"type": "uint256"
						}
					],
					"name": "TransferSucceeded",
					"type": "event"
				},
				{
					"inputs": [],
					"name": "MAX_BATCH_SIZE",
					"outputs": [
						{
							"internalType": "uint256",
							"name": "",
							"type": "uint256"
						}
					],
					"stateMutability": "view",
					"type": "function"
				},
				{
					"inputs": [
						{
							"internalType": "address[]",
							"name": "recipients",
							"type": "address[]"
						},
						{
							"internalType": "uint256[]",
							"name": "amounts",
							"type": "uint256[]"
						}
					],
					"name": "multiSend",
					"outputs": [],
					"stateMutability": "nonpayable",
					"type": "function"
				},
				{
					"inputs": [],
					"name": "token",
					"outputs": [
						{
							"internalType": "contract IERC20",
							"name": "",
							"type": "address"
						}
					],
					"stateMutability": "view",
					"type": "function"
				}
			],
			"devdoc": {
				"kind": "dev",
				"methods": {},
				"version": 1
			},
			"evm": {
				"assembly": "    /* \"contracts/MultiSend_flattened.sol\":2899:4156  contract MultiSend {... */\n  mstore(0x40, 0x80)\n    /* \"contracts/MultiSend_flattened.sol\":3052:3110  constructor(IERC20 _token) {... */\n  callvalue\n  dup1\n  iszero\n  tag_1\n  jumpi\n  0x00\n  dup1\n  revert\ntag_1:\n  pop\n  mload(0x40)\n  sub(codesize, bytecodeSize)\n  dup1\n  bytecodeSize\n  dup4\n  codecopy\n  dup2\n  add\n  0x40\n  dup2\n  swap1\n  mstore\n  tag_2\n  swap2\n  tag_3\n  jump\t// in\ntag_2:\n    /* \"contracts/MultiSend_flattened.sol\":3089:3094  token */\n  0x00\n    /* \"contracts/MultiSend_flattened.sol\":3089:3103  token = _token */\n  dup1\n  sload\n  not(sub(shl(0xa0, 0x01), 0x01))\n  and\n  sub(shl(0xa0, 0x01), 0x01)\n  swap3\n  swap1\n  swap3\n  and\n  swap2\n  swap1\n  swap2\n  or\n  swap1\n  sstore\n    /* \"contracts/MultiSend_flattened.sol\":2899:4156  contract MultiSend {... */\n  jump(tag_7)\n    /* \"#utility.yul\":14:317   */\ntag_3:\n    /* \"#utility.yul\":97:103   */\n  0x00\n    /* \"#utility.yul\":150:152   */\n  0x20\n    /* \"#utility.yul\":138:147   */\n  dup3\n    /* \"#utility.yul\":129:136   */\n  dup5\n    /* \"#utility.yul\":125:148   */\n  sub\n    /* \"#utility.yul\":121:153   */\n  slt\n    /* \"#utility.yul\":118:170   */\n  iszero\n  tag_9\n  jumpi\n    /* \"#utility.yul\":166:167   */\n  0x00\n    /* \"#utility.yul\":163:164   */\n  dup1\n    /* \"#utility.yul\":156:168   */\n  revert\n    /* \"#utility.yul\":118:170   */\ntag_9:\n    /* \"#utility.yul\":192:208   */\n  dup2\n  mload\n  sub(shl(0xa0, 0x01), 0x01)\n    /* \"#utility.yul\":237:268   */\n  dup2\n  and\n    /* \"#utility.yul\":227:269   */\n  dup2\n  eq\n    /* \"#utility.yul\":217:287   */\n  tag_10\n  jumpi\n    /* \"#utility.yul\":283:284   */\n  0x00\n    /* \"#utility.yul\":280:281   */\n  dup1\n    /* \"#utility.yul\":273:285   */\n  revert\n    /* \"#utility.yul\":217:287   */\ntag_10:\n    /* \"#utility.yul\":306:311   */\n  swap4\n    /* \"#utility.yul\":14:317   */\n  swap3\n  pop\n  pop\n  pop\n  jump\t// out\ntag_7:\n    /* \"contracts/MultiSend_flattened.sol\":2899:4156  contract MultiSend {... */\n  dataSize(sub_0)\n  dup1\n  dataOffset(sub_0)\n  0x00\n  codecopy\n  0x00\n  return\nstop\n\nsub_0: assembly {\n        /* \"contracts/MultiSend_flattened.sol\":2899:4156  contract MultiSend {... */\n      mstore(0x40, 0x80)\n      callvalue\n      dup1\n      iszero\n      tag_1\n      jumpi\n      0x00\n      dup1\n      revert\n    tag_1:\n      pop\n      jumpi(tag_2, lt(calldatasize, 0x04))\n      shr(0xe0, calldataload(0x00))\n      dup1\n      0xbb4c9f0b\n      eq\n      tag_3\n      jumpi\n      dup1\n      0xcfdbf254\n      eq\n      tag_4\n      jumpi\n      dup1\n      0xfc0c546a\n      eq\n      tag_5\n      jumpi\n    tag_2:\n      0x00\n      dup1\n      revert\n        /* \"contracts/MultiSend_flattened.sol\":3258:4154  function multiSend(address[] calldata recipients, uint256[] calldata amounts) external {... */\n    tag_3:\n      tag_6\n      tag_7\n      calldatasize\n      0x04\n      tag_8\n      jump\t// in\n    tag_7:\n      tag_9\n      jump\t// in\n    tag_6:\n      stop\n        /* \"contracts/MultiSend_flattened.sol\":2950:2992  uint256 public constant MAX_BATCH_SIZE = 2 */\n    tag_4:\n      tag_10\n        /* \"contracts/MultiSend_flattened.sol\":2991:2992  2 */\n      0x02\n        /* \"contracts/MultiSend_flattened.sol\":2950:2992  uint256 public constant MAX_BATCH_SIZE = 2 */\n      dup2\n      jump\n    tag_10:\n      mload(0x40)\n        /* \"#utility.yul\":1305:1330   */\n      swap1\n      dup2\n      mstore\n        /* \"#utility.yul\":1293:1295   */\n      0x20\n        /* \"#utility.yul\":1278:1296   */\n      add\n        /* \"contracts/MultiSend_flattened.sol\":2950:2992  uint256 public constant MAX_BATCH_SIZE = 2 */\n    tag_12:\n      mload(0x40)\n      dup1\n      swap2\n      sub\n      swap1\n      return\n        /* \"contracts/MultiSend_flattened.sol\":2924:2943  IERC20 public token */\n    tag_5:\n      sload(0x00)\n      tag_14\n      swap1\n      sub(shl(0xa0, 0x01), 0x01)\n      and\n      dup2\n      jump\n    tag_14:\n      mload(0x40)\n      sub(shl(0xa0, 0x01), 0x01)\n        /* \"#utility.yul\":1518:1550   */\n      swap1\n      swap2\n      and\n        /* \"#utility.yul\":1500:1551   */\n      dup2\n      mstore\n        /* \"#utility.yul\":1488:1490   */\n      0x20\n        /* \"#utility.yul\":1473:1491   */\n      add\n        /* \"contracts/MultiSend_flattened.sol\":2924:2943  IERC20 public token */\n      tag_12\n        /* \"#utility.yul\":1341:1557   */\n      jump\n        /* \"contracts/MultiSend_flattened.sol\":3258:4154  function multiSend(address[] calldata recipients, uint256[] calldata amounts) external {... */\n    tag_9:\n        /* \"contracts/MultiSend_flattened.sol\":3363:3398  recipients.length == amounts.length */\n      dup3\n      dup2\n      eq\n        /* \"contracts/MultiSend_flattened.sol\":3355:3458  require(recipients.length == amounts.length, \"Recipients and amounts arrays must have the same length\") */\n      tag_19\n      jumpi\n      mload(0x40)\n      shl(0xe5, 0x461bcd)\n      dup2\n      mstore\n        /* \"#utility.yul\":1764:1766   */\n      0x20\n        /* \"contracts/MultiSend_flattened.sol\":3355:3458  require(recipients.length == amounts.length, \"Recipients and amounts arrays must have the same length\") */\n      0x04\n      dup3\n      add\n        /* \"#utility.yul\":1746:1767   */\n      mstore\n        /* \"#utility.yul\":1803:1805   */\n      0x37\n        /* \"#utility.yul\":1783:1801   */\n      0x24\n      dup3\n      add\n        /* \"#utility.yul\":1776:1806   */\n      mstore\n        /* \"#utility.yul\":1842:1876   */\n      0x526563697069656e747320616e6420616d6f756e747320617272617973206d75\n        /* \"#utility.yul\":1822:1840   */\n      0x44\n      dup3\n      add\n        /* \"#utility.yul\":1815:1877   */\n      mstore\n        /* \"#utility.yul\":1913:1938   */\n      0x73742068617665207468652073616d65206c656e677468000000000000000000\n        /* \"#utility.yul\":1893:1911   */\n      0x64\n      dup3\n      add\n        /* \"#utility.yul\":1886:1939   */\n      mstore\n        /* \"#utility.yul\":1956:1975   */\n      0x84\n      add\n        /* \"contracts/MultiSend_flattened.sol\":3355:3458  require(recipients.length == amounts.length, \"Recipients and amounts arrays must have the same length\") */\n    tag_20:\n      mload(0x40)\n      dup1\n      swap2\n      sub\n      swap1\n      revert\n    tag_19:\n        /* \"contracts/MultiSend_flattened.sol\":2991:2992  2 */\n      0x02\n        /* \"contracts/MultiSend_flattened.sol\":3476:3511  recipients.length <= MAX_BATCH_SIZE */\n      dup4\n      gt\n      iszero\n        /* \"contracts/MultiSend_flattened.sol\":3468:3548  require(recipients.length <= MAX_BATCH_SIZE, \"Batch size exceeds maximum limit\") */\n      tag_22\n      jumpi\n      mload(0x40)\n      shl(0xe5, 0x461bcd)\n      dup2\n      mstore\n        /* \"#utility.yul\":2188:2190   */\n      0x20\n        /* \"contracts/MultiSend_flattened.sol\":3468:3548  require(recipients.length <= MAX_BATCH_SIZE, \"Batch size exceeds maximum limit\") */\n      0x04\n      dup3\n      add\n        /* \"#utility.yul\":2170:2191   */\n      dup2\n      swap1\n      mstore\n        /* \"#utility.yul\":2207:2225   */\n      0x24\n      dup3\n      add\n        /* \"#utility.yul\":2200:2230   */\n      mstore\n        /* \"#utility.yul\":2266:2300   */\n      0x42617463682073697a652065786365656473206d6178696d756d206c696d6974\n        /* \"#utility.yul\":2246:2264   */\n      0x44\n      dup3\n      add\n        /* \"#utility.yul\":2239:2301   */\n      mstore\n        /* \"#utility.yul\":2318:2336   */\n      0x64\n      add\n        /* \"contracts/MultiSend_flattened.sol\":3468:3548  require(recipients.length <= MAX_BATCH_SIZE, \"Batch size exceeds maximum limit\") */\n      tag_20\n        /* \"#utility.yul\":1986:2342   */\n      jump\n        /* \"contracts/MultiSend_flattened.sol\":3468:3548  require(recipients.length <= MAX_BATCH_SIZE, \"Batch size exceeds maximum limit\") */\n    tag_22:\n        /* \"contracts/MultiSend_flattened.sol\":3559:3578  uint256 totalAmount */\n      0x00\n        /* \"contracts/MultiSend_flattened.sol\":3598:3607  uint256 i */\n      dup1\n        /* \"contracts/MultiSend_flattened.sol\":3593:3691  for (uint256 i = 0; i < recipients.length; i++) {... */\n    tag_25:\n        /* \"contracts/MultiSend_flattened.sol\":3613:3634  i < recipients.length */\n      dup5\n      dup2\n      lt\n        /* \"contracts/MultiSend_flattened.sol\":3593:3691  for (uint256 i = 0; i < recipients.length; i++) {... */\n      iszero\n      tag_26\n      jumpi\n        /* \"contracts/MultiSend_flattened.sol\":3670:3677  amounts */\n      dup4\n      dup4\n        /* \"contracts/MultiSend_flattened.sol\":3678:3679  i */\n      dup3\n        /* \"contracts/MultiSend_flattened.sol\":3670:3680  amounts[i] */\n      dup2\n      dup2\n      lt\n      tag_29\n      jumpi\n      tag_29\n      tag_30\n      jump\t// in\n    tag_29:\n      swap1\n      pop\n      0x20\n      mul\n      add\n      calldataload\n        /* \"contracts/MultiSend_flattened.sol\":3655:3680  totalAmount += amounts[i] */\n      dup3\n      tag_31\n      swap2\n      swap1\n      tag_32\n      jump\t// in\n    tag_31:\n      swap2\n      pop\n        /* \"contracts/MultiSend_flattened.sol\":3636:3639  i++ */\n      0x01\n      add\n        /* \"contracts/MultiSend_flattened.sol\":3593:3691  for (uint256 i = 0; i < recipients.length; i++) {... */\n      jump(tag_25)\n    tag_26:\n      pop\n        /* \"contracts/MultiSend_flattened.sol\":3709:3714  token */\n      sload(0x00)\n        /* \"contracts/MultiSend_flattened.sol\":3709:3751  token.allowance(msg.sender, address(this)) */\n      mload(0x40)\n      shl(0xe1, 0x6eb1769f)\n      dup2\n      mstore\n        /* \"contracts/MultiSend_flattened.sol\":3725:3735  msg.sender */\n      caller\n        /* \"contracts/MultiSend_flattened.sol\":3709:3751  token.allowance(msg.sender, address(this)) */\n      0x04\n      dup3\n      add\n        /* \"#utility.yul\":2880:2931   */\n      mstore\n        /* \"contracts/MultiSend_flattened.sol\":3745:3749  this */\n      address\n        /* \"#utility.yul\":2947:2965   */\n      0x24\n      dup3\n      add\n        /* \"#utility.yul\":2940:3000   */\n      mstore\n        /* \"contracts/MultiSend_flattened.sol\":3755:3766  totalAmount */\n      dup3\n      swap2\n      sub(shl(0xa0, 0x01), 0x01)\n        /* \"contracts/MultiSend_flattened.sol\":3709:3714  token */\n      and\n      swap1\n        /* \"contracts/MultiSend_flattened.sol\":3709:3724  token.allowance */\n      0xdd62ed3e\n      swap1\n        /* \"#utility.yul\":2853:2871   */\n      0x44\n      add\n        /* \"contracts/MultiSend_flattened.sol\":3709:3751  token.allowance(msg.sender, address(this)) */\n      0x20\n      mload(0x40)\n      dup1\n      dup4\n      sub\n      dup2\n      dup7\n      gas\n      staticcall\n      iszero\n      dup1\n      iszero\n      tag_36\n      jumpi\n      returndatasize\n      0x00\n      dup1\n      returndatacopy\n      revert(0x00, returndatasize)\n    tag_36:\n      pop\n      pop\n      pop\n      pop\n      mload(0x40)\n      returndatasize\n      not(0x1f)\n      0x1f\n      dup3\n      add\n      and\n      dup3\n      add\n      dup1\n      0x40\n      mstore\n      pop\n      dup2\n      add\n      swap1\n      tag_37\n      swap2\n      swap1\n      tag_38\n      jump\t// in\n    tag_37:\n        /* \"contracts/MultiSend_flattened.sol\":3709:3766  token.allowance(msg.sender, address(this)) >= totalAmount */\n      lt\n      iszero\n        /* \"contracts/MultiSend_flattened.sol\":3701:3799  require(token.allowance(msg.sender, address(this)) >= totalAmount, \"Insufficient token allowance\") */\n      tag_39\n      jumpi\n      mload(0x40)\n      shl(0xe5, 0x461bcd)\n      dup2\n      mstore\n        /* \"#utility.yul\":3402:3404   */\n      0x20\n        /* \"contracts/MultiSend_flattened.sol\":3701:3799  require(token.allowance(msg.sender, address(this)) >= totalAmount, \"Insufficient token allowance\") */\n      0x04\n      dup3\n      add\n        /* \"#utility.yul\":3384:3405   */\n      mstore\n        /* \"#utility.yul\":3441:3443   */\n      0x1c\n        /* \"#utility.yul\":3421:3439   */\n      0x24\n      dup3\n      add\n        /* \"#utility.yul\":3414:3444   */\n      mstore\n        /* \"#utility.yul\":3480:3510   */\n      0x496e73756666696369656e7420746f6b656e20616c6c6f77616e636500000000\n        /* \"#utility.yul\":3460:3478   */\n      0x44\n      dup3\n      add\n        /* \"#utility.yul\":3453:3511   */\n      mstore\n        /* \"#utility.yul\":3528:3546   */\n      0x64\n      add\n        /* \"contracts/MultiSend_flattened.sol\":3701:3799  require(token.allowance(msg.sender, address(this)) >= totalAmount, \"Insufficient token allowance\") */\n      tag_20\n        /* \"#utility.yul\":3200:3552   */\n      jump\n        /* \"contracts/MultiSend_flattened.sol\":3701:3799  require(token.allowance(msg.sender, address(this)) >= totalAmount, \"Insufficient token allowance\") */\n    tag_39:\n        /* \"contracts/MultiSend_flattened.sol\":3815:3824  uint256 i */\n      0x00\n        /* \"contracts/MultiSend_flattened.sol\":3810:4148  for (uint256 i = 0; i < recipients.length; i++) {... */\n    tag_42:\n        /* \"contracts/MultiSend_flattened.sol\":3830:3851  i < recipients.length */\n      dup5\n      dup2\n      lt\n        /* \"contracts/MultiSend_flattened.sol\":3810:4148  for (uint256 i = 0; i < recipients.length; i++) {... */\n      iszero\n      tag_43\n      jumpi\n        /* \"contracts/MultiSend_flattened.sol\":3872:3884  bool success */\n      0x00\n        /* \"contracts/MultiSend_flattened.sol\":3887:3892  token */\n      dup1\n      sload\n      sub(shl(0xa0, 0x01), 0x01)\n      and\n        /* \"contracts/MultiSend_flattened.sol\":3887:3905  token.transferFrom */\n      0x23b872dd\n        /* \"contracts/MultiSend_flattened.sol\":3906:3916  msg.sender */\n      caller\n        /* \"contracts/MultiSend_flattened.sol\":3918:3928  recipients */\n      dup10\n      dup10\n        /* \"contracts/MultiSend_flattened.sol\":3929:3930  i */\n      dup7\n        /* \"contracts/MultiSend_flattened.sol\":3918:3931  recipients[i] */\n      dup2\n      dup2\n      lt\n      tag_46\n      jumpi\n      tag_46\n      tag_30\n      jump\t// in\n    tag_46:\n      swap1\n      pop\n      0x20\n      mul\n      add\n      0x20\n      dup2\n      add\n      swap1\n      tag_47\n      swap2\n      swap1\n      tag_48\n      jump\t// in\n    tag_47:\n        /* \"contracts/MultiSend_flattened.sol\":3933:3940  amounts */\n      dup9\n      dup9\n        /* \"contracts/MultiSend_flattened.sol\":3941:3942  i */\n      dup8\n        /* \"contracts/MultiSend_flattened.sol\":3933:3943  amounts[i] */\n      dup2\n      dup2\n      lt\n      tag_50\n      jumpi\n      tag_50\n      tag_30\n      jump\t// in\n    tag_50:\n        /* \"contracts/MultiSend_flattened.sol\":3887:3944  token.transferFrom(msg.sender, recipients[i], amounts[i]) */\n      mload(0x40)\n      not(sub(shl(0xe0, 0x01), 0x01))\n      0xe0\n      dup9\n      swap1\n      shl\n      and\n      dup2\n      mstore\n      sub(shl(0xa0, 0x01), 0x01)\n        /* \"#utility.yul\":4068:4100   */\n      swap6\n      dup7\n      and\n        /* \"contracts/MultiSend_flattened.sol\":3887:3944  token.transferFrom(msg.sender, recipients[i], amounts[i]) */\n      0x04\n      dup3\n      add\n        /* \"#utility.yul\":4050:4101   */\n      mstore\n        /* \"#utility.yul\":4137:4169   */\n      swap5\n      swap1\n      swap4\n      and\n        /* \"#utility.yul\":4117:4135   */\n      0x24\n      dup6\n      add\n        /* \"#utility.yul\":4110:4170   */\n      mstore\n      pop\n        /* \"contracts/MultiSend_flattened.sol\":3933:3943  amounts[i] */\n      0x20\n      swap1\n      swap2\n      mul\n      add\n      calldataload\n        /* \"#utility.yul\":4186:4204   */\n      0x44\n      dup3\n      add\n        /* \"#utility.yul\":4179:4213   */\n      mstore\n        /* \"#utility.yul\":4023:4041   */\n      0x64\n      add\n        /* \"contracts/MultiSend_flattened.sol\":3887:3944  token.transferFrom(msg.sender, recipients[i], amounts[i]) */\n      0x20\n      mload(0x40)\n      dup1\n      dup4\n      sub\n      dup2\n      0x00\n      dup8\n      gas\n      call\n      iszero\n      dup1\n      iszero\n      tag_54\n      jumpi\n      returndatasize\n      0x00\n      dup1\n      returndatacopy\n      revert(0x00, returndatasize)\n    tag_54:\n      pop\n      pop\n      pop\n      pop\n      mload(0x40)\n      returndatasize\n      not(0x1f)\n      0x1f\n      dup3\n      add\n      and\n      dup3\n      add\n      dup1\n      0x40\n      mstore\n      pop\n      dup2\n      add\n      swap1\n      tag_55\n      swap2\n      swap1\n      tag_56\n      jump\t// in\n    tag_55:\n        /* \"contracts/MultiSend_flattened.sol\":3872:3944  bool success = token.transferFrom(msg.sender, recipients[i], amounts[i]) */\n      swap1\n      pop\n        /* \"contracts/MultiSend_flattened.sol\":3962:3969  success */\n      dup1\n        /* \"contracts/MultiSend_flattened.sol\":3958:4138  if (success) {... */\n      iszero\n      tag_57\n      jumpi\n        /* \"contracts/MultiSend_flattened.sol\":4012:4022  recipients */\n      dup7\n      dup7\n        /* \"contracts/MultiSend_flattened.sol\":4023:4024  i */\n      dup4\n        /* \"contracts/MultiSend_flattened.sol\":4012:4025  recipients[i] */\n      dup2\n      dup2\n      lt\n      tag_59\n      jumpi\n      tag_59\n      tag_30\n      jump\t// in\n    tag_59:\n      swap1\n      pop\n      0x20\n      mul\n      add\n      0x20\n      dup2\n      add\n      swap1\n      tag_60\n      swap2\n      swap1\n      tag_48\n      jump\t// in\n    tag_60:\n      sub(shl(0xa0, 0x01), 0x01)\n        /* \"contracts/MultiSend_flattened.sol\":3994:4038  TransferSucceeded(recipients[i], amounts[i]) */\n      and\n      0xc12c845aa612685ce7eba62f9a39aa76cd74c79886ba529d72a23d31690d8c73\n        /* \"contracts/MultiSend_flattened.sol\":4027:4034  amounts */\n      dup7\n      dup7\n        /* \"contracts/MultiSend_flattened.sol\":4035:4036  i */\n      dup6\n        /* \"contracts/MultiSend_flattened.sol\":4027:4037  amounts[i] */\n      dup2\n      dup2\n      lt\n      tag_62\n      jumpi\n      tag_62\n      tag_30\n      jump\t// in\n    tag_62:\n      swap1\n      pop\n      0x20\n      mul\n      add\n      calldataload\n        /* \"contracts/MultiSend_flattened.sol\":3994:4038  TransferSucceeded(recipients[i], amounts[i]) */\n      mload(0x40)\n      tag_63\n      swap2\n        /* \"#utility.yul\":1305:1330   */\n      dup2\n      mstore\n        /* \"#utility.yul\":1293:1295   */\n      0x20\n        /* \"#utility.yul\":1278:1296   */\n      add\n      swap1\n        /* \"#utility.yul\":1159:1336   */\n      jump\n        /* \"contracts/MultiSend_flattened.sol\":3994:4038  TransferSucceeded(recipients[i], amounts[i]) */\n    tag_63:\n      mload(0x40)\n      dup1\n      swap2\n      sub\n      swap1\n      log2\n        /* \"contracts/MultiSend_flattened.sol\":3958:4138  if (success) {... */\n      jump(tag_64)\n    tag_57:\n        /* \"contracts/MultiSend_flattened.sol\":4097:4107  recipients */\n      dup7\n      dup7\n        /* \"contracts/MultiSend_flattened.sol\":4108:4109  i */\n      dup4\n        /* \"contracts/MultiSend_flattened.sol\":4097:4110  recipients[i] */\n      dup2\n      dup2\n      lt\n      tag_66\n      jumpi\n      tag_66\n      tag_30\n      jump\t// in\n    tag_66:\n      swap1\n      pop\n      0x20\n      mul\n      add\n      0x20\n      dup2\n      add\n      swap1\n      tag_67\n      swap2\n      swap1\n      tag_48\n      jump\t// in\n    tag_67:\n      sub(shl(0xa0, 0x01), 0x01)\n        /* \"contracts/MultiSend_flattened.sol\":4082:4123  TransferFailed(recipients[i], amounts[i]) */\n      and\n      0x1c43b9761b3fba5321ca8212bfc231945f668ccc0c446f333999eea9ce8fda81\n        /* \"contracts/MultiSend_flattened.sol\":4112:4119  amounts */\n      dup7\n      dup7\n        /* \"contracts/MultiSend_flattened.sol\":4120:4121  i */\n      dup6\n        /* \"contracts/MultiSend_flattened.sol\":4112:4122  amounts[i] */\n      dup2\n      dup2\n      lt\n      tag_69\n      jumpi\n      tag_69\n      tag_30\n      jump\t// in\n    tag_69:\n      swap1\n      pop\n      0x20\n      mul\n      add\n      calldataload\n        /* \"contracts/MultiSend_flattened.sol\":4082:4123  TransferFailed(recipients[i], amounts[i]) */\n      mload(0x40)\n      tag_70\n      swap2\n        /* \"#utility.yul\":1305:1330   */\n      dup2\n      mstore\n        /* \"#utility.yul\":1293:1295   */\n      0x20\n        /* \"#utility.yul\":1278:1296   */\n      add\n      swap1\n        /* \"#utility.yul\":1159:1336   */\n      jump\n        /* \"contracts/MultiSend_flattened.sol\":4082:4123  TransferFailed(recipients[i], amounts[i]) */\n    tag_70:\n      mload(0x40)\n      dup1\n      swap2\n      sub\n      swap1\n      log2\n        /* \"contracts/MultiSend_flattened.sol\":3958:4138  if (success) {... */\n    tag_64:\n      pop\n        /* \"contracts/MultiSend_flattened.sol\":3853:3856  i++ */\n      0x01\n      add\n        /* \"contracts/MultiSend_flattened.sol\":3810:4148  for (uint256 i = 0; i < recipients.length; i++) {... */\n      jump(tag_42)\n    tag_43:\n      pop\n        /* \"contracts/MultiSend_flattened.sol\":3345:4154  {... */\n      pop\n        /* \"contracts/MultiSend_flattened.sol\":3258:4154  function multiSend(address[] calldata recipients, uint256[] calldata amounts) external {... */\n      pop\n      pop\n      pop\n      pop\n      jump\t// out\n        /* \"#utility.yul\":14:381   */\n    tag_71:\n        /* \"#utility.yul\":77:85   */\n      0x00\n        /* \"#utility.yul\":87:93   */\n      dup1\n        /* \"#utility.yul\":141:144   */\n      dup4\n        /* \"#utility.yul\":134:138   */\n      0x1f\n        /* \"#utility.yul\":126:132   */\n      dup5\n        /* \"#utility.yul\":122:139   */\n      add\n        /* \"#utility.yul\":118:145   */\n      slt\n        /* \"#utility.yul\":108:163   */\n      tag_74\n      jumpi\n        /* \"#utility.yul\":159:160   */\n      0x00\n        /* \"#utility.yul\":156:157   */\n      dup1\n        /* \"#utility.yul\":149:161   */\n      revert\n        /* \"#utility.yul\":108:163   */\n    tag_74:\n      pop\n        /* \"#utility.yul\":182:202   */\n      dup2\n      calldataload\n        /* \"#utility.yul\":225:243   */\n      0xffffffffffffffff\n        /* \"#utility.yul\":214:244   */\n      dup2\n      gt\n        /* \"#utility.yul\":211:261   */\n      iszero\n      tag_75\n      jumpi\n        /* \"#utility.yul\":257:258   */\n      0x00\n        /* \"#utility.yul\":254:255   */\n      dup1\n        /* \"#utility.yul\":247:259   */\n      revert\n        /* \"#utility.yul\":211:261   */\n    tag_75:\n        /* \"#utility.yul\":294:298   */\n      0x20\n        /* \"#utility.yul\":286:292   */\n      dup4\n        /* \"#utility.yul\":282:299   */\n      add\n        /* \"#utility.yul\":270:299   */\n      swap2\n      pop\n        /* \"#utility.yul\":354:357   */\n      dup4\n        /* \"#utility.yul\":347:351   */\n      0x20\n        /* \"#utility.yul\":337:343   */\n      dup3\n        /* \"#utility.yul\":334:335   */\n      0x05\n        /* \"#utility.yul\":330:344   */\n      shl\n        /* \"#utility.yul\":322:328   */\n      dup6\n        /* \"#utility.yul\":318:345   */\n      add\n        /* \"#utility.yul\":314:352   */\n      add\n        /* \"#utility.yul\":311:358   */\n      gt\n        /* \"#utility.yul\":308:375   */\n      iszero\n      tag_76\n      jumpi\n        /* \"#utility.yul\":371:372   */\n      0x00\n        /* \"#utility.yul\":368:369   */\n      dup1\n        /* \"#utility.yul\":361:373   */\n      revert\n        /* \"#utility.yul\":308:375   */\n    tag_76:\n        /* \"#utility.yul\":14:381   */\n      swap3\n      pop\n      swap3\n      swap1\n      pop\n      jump\t// out\n        /* \"#utility.yul\":386:1154   */\n    tag_8:\n        /* \"#utility.yul\":508:514   */\n      0x00\n        /* \"#utility.yul\":516:522   */\n      dup1\n        /* \"#utility.yul\":524:530   */\n      0x00\n        /* \"#utility.yul\":532:538   */\n      dup1\n        /* \"#utility.yul\":585:587   */\n      0x40\n        /* \"#utility.yul\":573:582   */\n      dup6\n        /* \"#utility.yul\":564:571   */\n      dup8\n        /* \"#utility.yul\":560:583   */\n      sub\n        /* \"#utility.yul\":556:588   */\n      slt\n        /* \"#utility.yul\":553:605   */\n      iszero\n      tag_78\n      jumpi\n        /* \"#utility.yul\":601:602   */\n      0x00\n        /* \"#utility.yul\":598:599   */\n      dup1\n        /* \"#utility.yul\":591:603   */\n      revert\n        /* \"#utility.yul\":553:605   */\n    tag_78:\n        /* \"#utility.yul\":641:650   */\n      dup5\n        /* \"#utility.yul\":628:651   */\n      calldataload\n        /* \"#utility.yul\":674:692   */\n      0xffffffffffffffff\n        /* \"#utility.yul\":666:672   */\n      dup2\n        /* \"#utility.yul\":663:693   */\n      gt\n        /* \"#utility.yul\":660:710   */\n      iszero\n      tag_79\n      jumpi\n        /* \"#utility.yul\":706:707   */\n      0x00\n        /* \"#utility.yul\":703:704   */\n      dup1\n        /* \"#utility.yul\":696:708   */\n      revert\n        /* \"#utility.yul\":660:710   */\n    tag_79:\n        /* \"#utility.yul\":745:815   */\n      tag_80\n        /* \"#utility.yul\":807:814   */\n      dup8\n        /* \"#utility.yul\":798:804   */\n      dup3\n        /* \"#utility.yul\":787:796   */\n      dup9\n        /* \"#utility.yul\":783:805   */\n      add\n        /* \"#utility.yul\":745:815   */\n      tag_71\n      jump\t// in\n    tag_80:\n        /* \"#utility.yul\":834:842   */\n      swap1\n      swap6\n      pop\n        /* \"#utility.yul\":719:815   */\n      swap4\n      pop\n      pop\n        /* \"#utility.yul\":922:924   */\n      0x20\n        /* \"#utility.yul\":907:925   */\n      dup6\n      add\n        /* \"#utility.yul\":894:926   */\n      calldataload\n        /* \"#utility.yul\":951:969   */\n      0xffffffffffffffff\n        /* \"#utility.yul\":938:970   */\n      dup2\n      gt\n        /* \"#utility.yul\":935:987   */\n      iszero\n      tag_81\n      jumpi\n        /* \"#utility.yul\":983:984   */\n      0x00\n        /* \"#utility.yul\":980:981   */\n      dup1\n        /* \"#utility.yul\":973:985   */\n      revert\n        /* \"#utility.yul\":935:987   */\n    tag_81:\n        /* \"#utility.yul\":1022:1094   */\n      tag_82\n        /* \"#utility.yul\":1086:1093   */\n      dup8\n        /* \"#utility.yul\":1075:1083   */\n      dup3\n        /* \"#utility.yul\":1064:1073   */\n      dup9\n        /* \"#utility.yul\":1060:1084   */\n      add\n        /* \"#utility.yul\":1022:1094   */\n      tag_71\n      jump\t// in\n    tag_82:\n        /* \"#utility.yul\":386:1154   */\n      swap6\n      swap9\n      swap5\n      swap8\n      pop\n        /* \"#utility.yul\":1113:1121   */\n      swap6\n      pop\n      pop\n      pop\n      pop\n        /* \"#utility.yul\":386:1154   */\n      jump\t// out\n        /* \"#utility.yul\":2347:2474   */\n    tag_30:\n        /* \"#utility.yul\":2408:2418   */\n      0x4e487b71\n        /* \"#utility.yul\":2403:2406   */\n      0xe0\n        /* \"#utility.yul\":2399:2419   */\n      shl\n        /* \"#utility.yul\":2396:2397   */\n      0x00\n        /* \"#utility.yul\":2389:2420   */\n      mstore\n        /* \"#utility.yul\":2439:2443   */\n      0x32\n        /* \"#utility.yul\":2436:2437   */\n      0x04\n        /* \"#utility.yul\":2429:2444   */\n      mstore\n        /* \"#utility.yul\":2463:2467   */\n      0x24\n        /* \"#utility.yul\":2460:2461   */\n      0x00\n        /* \"#utility.yul\":2453:2468   */\n      revert\n        /* \"#utility.yul\":2479:2701   */\n    tag_32:\n        /* \"#utility.yul\":2544:2553   */\n      dup1\n      dup3\n      add\n        /* \"#utility.yul\":2565:2575   */\n      dup1\n      dup3\n      gt\n        /* \"#utility.yul\":2562:2695   */\n      iszero\n      tag_89\n      jumpi\n        /* \"#utility.yul\":2617:2627   */\n      0x4e487b71\n        /* \"#utility.yul\":2612:2615   */\n      0xe0\n        /* \"#utility.yul\":2608:2628   */\n      shl\n        /* \"#utility.yul\":2605:2606   */\n      0x00\n        /* \"#utility.yul\":2598:2629   */\n      mstore\n        /* \"#utility.yul\":2652:2656   */\n      0x11\n        /* \"#utility.yul\":2649:2650   */\n      0x04\n        /* \"#utility.yul\":2642:2657   */\n      mstore\n        /* \"#utility.yul\":2680:2684   */\n      0x24\n        /* \"#utility.yul\":2677:2678   */\n      0x00\n        /* \"#utility.yul\":2670:2685   */\n      revert\n        /* \"#utility.yul\":2562:2695   */\n    tag_89:\n        /* \"#utility.yul\":2479:2701   */\n      swap3\n      swap2\n      pop\n      pop\n      jump\t// out\n        /* \"#utility.yul\":3011:3195   */\n    tag_38:\n        /* \"#utility.yul\":3081:3087   */\n      0x00\n        /* \"#utility.yul\":3134:3136   */\n      0x20\n        /* \"#utility.yul\":3122:3131   */\n      dup3\n        /* \"#utility.yul\":3113:3120   */\n      dup5\n        /* \"#utility.yul\":3109:3132   */\n      sub\n        /* \"#utility.yul\":3105:3137   */\n      slt\n        /* \"#utility.yul\":3102:3154   */\n      iszero\n      tag_92\n      jumpi\n        /* \"#utility.yul\":3150:3151   */\n      0x00\n        /* \"#utility.yul\":3147:3148   */\n      dup1\n        /* \"#utility.yul\":3140:3152   */\n      revert\n        /* \"#utility.yul\":3102:3154   */\n    tag_92:\n      pop\n        /* \"#utility.yul\":3173:3189   */\n      mload\n      swap2\n        /* \"#utility.yul\":3011:3195   */\n      swap1\n      pop\n      jump\t// out\n        /* \"#utility.yul\":3557:3843   */\n    tag_48:\n        /* \"#utility.yul\":3616:3622   */\n      0x00\n        /* \"#utility.yul\":3669:3671   */\n      0x20\n        /* \"#utility.yul\":3657:3666   */\n      dup3\n        /* \"#utility.yul\":3648:3655   */\n      dup5\n        /* \"#utility.yul\":3644:3667   */\n      sub\n        /* \"#utility.yul\":3640:3672   */\n      slt\n        /* \"#utility.yul\":3637:3689   */\n      iszero\n      tag_95\n      jumpi\n        /* \"#utility.yul\":3685:3686   */\n      0x00\n        /* \"#utility.yul\":3682:3683   */\n      dup1\n        /* \"#utility.yul\":3675:3687   */\n      revert\n        /* \"#utility.yul\":3637:3689   */\n    tag_95:\n        /* \"#utility.yul\":3711:3734   */\n      dup2\n      calldataload\n      sub(shl(0xa0, 0x01), 0x01)\n        /* \"#utility.yul\":3763:3794   */\n      dup2\n      and\n        /* \"#utility.yul\":3753:3795   */\n      dup2\n      eq\n        /* \"#utility.yul\":3743:3813   */\n      tag_96\n      jumpi\n        /* \"#utility.yul\":3809:3810   */\n      0x00\n        /* \"#utility.yul\":3806:3807   */\n      dup1\n        /* \"#utility.yul\":3799:3811   */\n      revert\n        /* \"#utility.yul\":3743:3813   */\n    tag_96:\n        /* \"#utility.yul\":3832:3837   */\n      swap4\n        /* \"#utility.yul\":3557:3843   */\n      swap3\n      pop\n      pop\n      pop\n      jump\t// out\n        /* \"#utility.yul\":4224:4501   */\n    tag_56:\n        /* \"#utility.yul\":4291:4297   */\n      0x00\n        /* \"#utility.yul\":4344:4346   */\n      0x20\n        /* \"#utility.yul\":4332:4341   */\n      dup3\n        /* \"#utility.yul\":4323:4330   */\n      dup5\n        /* \"#utility.yul\":4319:4342   */\n      sub\n        /* \"#utility.yul\":4315:4347   */\n      slt\n        /* \"#utility.yul\":4312:4364   */\n      iszero\n      tag_99\n      jumpi\n        /* \"#utility.yul\":4360:4361   */\n      0x00\n        /* \"#utility.yul\":4357:4358   */\n      dup1\n        /* \"#utility.yul\":4350:4362   */\n      revert\n        /* \"#utility.yul\":4312:4364   */\n    tag_99:\n        /* \"#utility.yul\":4392:4401   */\n      dup2\n        /* \"#utility.yul\":4386:4402   */\n      mload\n        /* \"#utility.yul\":4445:4450   */\n      dup1\n        /* \"#utility.yul\":4438:4451   */\n      iszero\n        /* \"#utility.yul\":4431:4452   */\n      iszero\n        /* \"#utility.yul\":4424:4429   */\n      dup2\n        /* \"#utility.yul\":4421:4453   */\n      eq\n        /* \"#utility.yul\":4411:4471   */\n      tag_96\n      jumpi\n        /* \"#utility.yul\":4467:4468   */\n      0x00\n        /* \"#utility.yul\":4464:4465   */\n      dup1\n        /* \"#utility.yul\":4457:4469   */\n      revert\n\n    auxdata: 0xa264697066735822122047213eb106d9033b775e1dcf66d3a8adbee4d6969a75f47cea4eb9b6a29e4f4764736f6c634300081a0033\n}\n",
				"bytecode": {
					"linkReferences": {},
					"object": "6080604052348015600e575f80fd5b5060405161065e38038061065e833981016040819052602b91604e565b5f80546001600160a01b0319166001600160a01b03929092169190911790556079565b5f60208284031215605d575f80fd5b81516001600160a01b03811681146072575f80fd5b9392505050565b6105d8806100865f395ff3fe608060405234801561000f575f80fd5b506004361061003f575f3560e01c8063bb4c9f0b14610043578063cfdbf25414610058578063fc0c546a14610073575b5f80fd5b61005661005136600461049a565b61009d565b005b610060600281565b6040519081526020015b60405180910390f35b5f54610085906001600160a01b031681565b6040516001600160a01b03909116815260200161006a565b8281146101175760405162461bcd60e51b815260206004820152603760248201527f526563697069656e747320616e6420616d6f756e747320617272617973206d7560448201527f73742068617665207468652073616d65206c656e67746800000000000000000060648201526084015b60405180910390fd5b60028311156101685760405162461bcd60e51b815260206004820181905260248201527f42617463682073697a652065786365656473206d6178696d756d206c696d6974604482015260640161010e565b5f805b848110156101a15783838281811061018557610185610506565b9050602002013582610197919061051a565b915060010161016b565b505f54604051636eb1769f60e11b815233600482015230602482015282916001600160a01b03169063dd62ed3e90604401602060405180830381865afa1580156101ed573d5f803e3d5ffd5b505050506040513d601f19601f82011682018060405250810190610211919061053f565b101561025f5760405162461bcd60e51b815260206004820152601c60248201527f496e73756666696369656e7420746f6b656e20616c6c6f77616e636500000000604482015260640161010e565b5f5b8481101561044a575f80546001600160a01b03166323b872dd3389898681811061028d5761028d610506565b90506020020160208101906102a29190610556565b8888878181106102b4576102b4610506565b6040516001600160e01b031960e088901b1681526001600160a01b039586166004820152949093166024850152506020909102013560448201526064016020604051808303815f875af115801561030d573d5f803e3d5ffd5b505050506040513d601f19601f820116820180604052508101906103319190610583565b905080156103bf5786868381811061034b5761034b610506565b90506020020160208101906103609190610556565b6001600160a01b03167fc12c845aa612685ce7eba62f9a39aa76cd74c79886ba529d72a23d31690d8c7386868581811061039c5761039c610506565b905060200201356040516103b291815260200190565b60405180910390a2610441565b8686838181106103d1576103d1610506565b90506020020160208101906103e69190610556565b6001600160a01b03167f1c43b9761b3fba5321ca8212bfc231945f668ccc0c446f333999eea9ce8fda8186868581811061042257610422610506565b9050602002013560405161043891815260200190565b60405180910390a25b50600101610261565b505050505050565b5f8083601f840112610462575f80fd5b50813567ffffffffffffffff811115610479575f80fd5b6020830191508360208260051b8501011115610493575f80fd5b9250929050565b5f805f80604085870312156104ad575f80fd5b843567ffffffffffffffff8111156104c3575f80fd5b6104cf87828801610452565b909550935050602085013567ffffffffffffffff8111156104ee575f80fd5b6104fa87828801610452565b95989497509550505050565b634e487b7160e01b5f52603260045260245ffd5b8082018082111561053957634e487b7160e01b5f52601160045260245ffd5b92915050565b5f6020828403121561054f575f80fd5b5051919050565b5f60208284031215610566575f80fd5b81356001600160a01b038116811461057c575f80fd5b9392505050565b5f60208284031215610593575f80fd5b8151801515811461057c575f80fdfea264697066735822122047213eb106d9033b775e1dcf66d3a8adbee4d6969a75f47cea4eb9b6a29e4f4764736f6c634300081a0033",
					"opcodes": "PUSH1 0x80 PUSH1 0x40 MSTORE CALLVALUE DUP1 ISZERO PUSH1 0xE JUMPI PUSH0 DUP1 REVERT JUMPDEST POP PUSH1 0x40 MLOAD PUSH2 0x65E CODESIZE SUB DUP1 PUSH2 0x65E DUP4 CODECOPY DUP2 ADD PUSH1 0x40 DUP2 SWAP1 MSTORE PUSH1 0x2B SWAP2 PUSH1 0x4E JUMP JUMPDEST PUSH0 DUP1 SLOAD PUSH1 0x1 PUSH1 0x1 PUSH1 0xA0 SHL SUB NOT AND PUSH1 0x1 PUSH1 0x1 PUSH1 0xA0 SHL SUB SWAP3 SWAP1 SWAP3 AND SWAP2 SWAP1 SWAP2 OR SWAP1 SSTORE PUSH1 0x79 JUMP JUMPDEST PUSH0 PUSH1 0x20 DUP3 DUP5 SUB SLT ISZERO PUSH1 0x5D JUMPI PUSH0 DUP1 REVERT JUMPDEST DUP2 MLOAD PUSH1 0x1 PUSH1 0x1 PUSH1 0xA0 SHL SUB DUP2 AND DUP2 EQ PUSH1 0x72 JUMPI PUSH0 DUP1 REVERT JUMPDEST SWAP4 SWAP3 POP POP POP JUMP JUMPDEST PUSH2 0x5D8 DUP1 PUSH2 0x86 PUSH0 CODECOPY PUSH0 RETURN INVALID PUSH1 0x80 PUSH1 0x40 MSTORE CALLVALUE DUP1 ISZERO PUSH2 0xF JUMPI PUSH0 DUP1 REVERT JUMPDEST POP PUSH1 0x4 CALLDATASIZE LT PUSH2 0x3F JUMPI PUSH0 CALLDATALOAD PUSH1 0xE0 SHR DUP1 PUSH4 0xBB4C9F0B EQ PUSH2 0x43 JUMPI DUP1 PUSH4 0xCFDBF254 EQ PUSH2 0x58 JUMPI DUP1 PUSH4 0xFC0C546A EQ PUSH2 0x73 JUMPI JUMPDEST PUSH0 DUP1 REVERT JUMPDEST PUSH2 0x56 PUSH2 0x51 CALLDATASIZE PUSH1 0x4 PUSH2 0x49A JUMP JUMPDEST PUSH2 0x9D JUMP JUMPDEST STOP JUMPDEST PUSH2 0x60 PUSH1 0x2 DUP2 JUMP JUMPDEST PUSH1 0x40 MLOAD SWAP1 DUP2 MSTORE PUSH1 0x20 ADD JUMPDEST PUSH1 0x40 MLOAD DUP1 SWAP2 SUB SWAP1 RETURN JUMPDEST PUSH0 SLOAD PUSH2 0x85 SWAP1 PUSH1 0x1 PUSH1 0x1 PUSH1 0xA0 SHL SUB AND DUP2 JUMP JUMPDEST PUSH1 0x40 MLOAD PUSH1 0x1 PUSH1 0x1 PUSH1 0xA0 SHL SUB SWAP1 SWAP2 AND DUP2 MSTORE PUSH1 0x20 ADD PUSH2 0x6A JUMP JUMPDEST DUP3 DUP2 EQ PUSH2 0x117 JUMPI PUSH1 0x40 MLOAD PUSH3 0x461BCD PUSH1 0xE5 SHL DUP2 MSTORE PUSH1 0x20 PUSH1 0x4 DUP3 ADD MSTORE PUSH1 0x37 PUSH1 0x24 DUP3 ADD MSTORE PUSH32 0x526563697069656E747320616E6420616D6F756E747320617272617973206D75 PUSH1 0x44 DUP3 ADD MSTORE PUSH32 0x73742068617665207468652073616D65206C656E677468000000000000000000 PUSH1 0x64 DUP3 ADD MSTORE PUSH1 0x84 ADD JUMPDEST PUSH1 0x40 MLOAD DUP1 SWAP2 SUB SWAP1 REVERT JUMPDEST PUSH1 0x2 DUP4 GT ISZERO PUSH2 0x168 JUMPI PUSH1 0x40 MLOAD PUSH3 0x461BCD PUSH1 0xE5 SHL DUP2 MSTORE PUSH1 0x20 PUSH1 0x4 DUP3 ADD DUP2 SWAP1 MSTORE PUSH1 0x24 DUP3 ADD MSTORE PUSH32 0x42617463682073697A652065786365656473206D6178696D756D206C696D6974 PUSH1 0x44 DUP3 ADD MSTORE PUSH1 0x64 ADD PUSH2 0x10E JUMP JUMPDEST PUSH0 DUP1 JUMPDEST DUP5 DUP2 LT ISZERO PUSH2 0x1A1 JUMPI DUP4 DUP4 DUP3 DUP2 DUP2 LT PUSH2 0x185 JUMPI PUSH2 0x185 PUSH2 0x506 JUMP JUMPDEST SWAP1 POP PUSH1 0x20 MUL ADD CALLDATALOAD DUP3 PUSH2 0x197 SWAP2 SWAP1 PUSH2 0x51A JUMP JUMPDEST SWAP2 POP PUSH1 0x1 ADD PUSH2 0x16B JUMP JUMPDEST POP PUSH0 SLOAD PUSH1 0x40 MLOAD PUSH4 0x6EB1769F PUSH1 0xE1 SHL DUP2 MSTORE CALLER PUSH1 0x4 DUP3 ADD MSTORE ADDRESS PUSH1 0x24 DUP3 ADD MSTORE DUP3 SWAP2 PUSH1 0x1 PUSH1 0x1 PUSH1 0xA0 SHL SUB AND SWAP1 PUSH4 0xDD62ED3E SWAP1 PUSH1 0x44 ADD PUSH1 0x20 PUSH1 0x40 MLOAD DUP1 DUP4 SUB DUP2 DUP7 GAS STATICCALL ISZERO DUP1 ISZERO PUSH2 0x1ED JUMPI RETURNDATASIZE PUSH0 DUP1 RETURNDATACOPY RETURNDATASIZE PUSH0 REVERT JUMPDEST POP POP POP POP PUSH1 0x40 MLOAD RETURNDATASIZE PUSH1 0x1F NOT PUSH1 0x1F DUP3 ADD AND DUP3 ADD DUP1 PUSH1 0x40 MSTORE POP DUP2 ADD SWAP1 PUSH2 0x211 SWAP2 SWAP1 PUSH2 0x53F JUMP JUMPDEST LT ISZERO PUSH2 0x25F JUMPI PUSH1 0x40 MLOAD PUSH3 0x461BCD PUSH1 0xE5 SHL DUP2 MSTORE PUSH1 0x20 PUSH1 0x4 DUP3 ADD MSTORE PUSH1 0x1C PUSH1 0x24 DUP3 ADD MSTORE PUSH32 0x496E73756666696369656E7420746F6B656E20616C6C6F77616E636500000000 PUSH1 0x44 DUP3 ADD MSTORE PUSH1 0x64 ADD PUSH2 0x10E JUMP JUMPDEST PUSH0 JUMPDEST DUP5 DUP2 LT ISZERO PUSH2 0x44A JUMPI PUSH0 DUP1 SLOAD PUSH1 0x1 PUSH1 0x1 PUSH1 0xA0 SHL SUB AND PUSH4 0x23B872DD CALLER DUP10 DUP10 DUP7 DUP2 DUP2 LT PUSH2 0x28D JUMPI PUSH2 0x28D PUSH2 0x506 JUMP JUMPDEST SWAP1 POP PUSH1 0x20 MUL ADD PUSH1 0x20 DUP2 ADD SWAP1 PUSH2 0x2A2 SWAP2 SWAP1 PUSH2 0x556 JUMP JUMPDEST DUP9 DUP9 DUP8 DUP2 DUP2 LT PUSH2 0x2B4 JUMPI PUSH2 0x2B4 PUSH2 0x506 JUMP JUMPDEST PUSH1 0x40 MLOAD PUSH1 0x1 PUSH1 0x1 PUSH1 0xE0 SHL SUB NOT PUSH1 0xE0 DUP9 SWAP1 SHL AND DUP2 MSTORE PUSH1 0x1 PUSH1 0x1 PUSH1 0xA0 SHL SUB SWAP6 DUP7 AND PUSH1 0x4 DUP3 ADD MSTORE SWAP5 SWAP1 SWAP4 AND PUSH1 0x24 DUP6 ADD MSTORE POP PUSH1 0x20 SWAP1 SWAP2 MUL ADD CALLDATALOAD PUSH1 0x44 DUP3 ADD MSTORE PUSH1 0x64 ADD PUSH1 0x20 PUSH1 0x40 MLOAD DUP1 DUP4 SUB DUP2 PUSH0 DUP8 GAS CALL ISZERO DUP1 ISZERO PUSH2 0x30D JUMPI RETURNDATASIZE PUSH0 DUP1 RETURNDATACOPY RETURNDATASIZE PUSH0 REVERT JUMPDEST POP POP POP POP PUSH1 0x40 MLOAD RETURNDATASIZE PUSH1 0x1F NOT PUSH1 0x1F DUP3 ADD AND DUP3 ADD DUP1 PUSH1 0x40 MSTORE POP DUP2 ADD SWAP1 PUSH2 0x331 SWAP2 SWAP1 PUSH2 0x583 JUMP JUMPDEST SWAP1 POP DUP1 ISZERO PUSH2 0x3BF JUMPI DUP7 DUP7 DUP4 DUP2 DUP2 LT PUSH2 0x34B JUMPI PUSH2 0x34B PUSH2 0x506 JUMP JUMPDEST SWAP1 POP PUSH1 0x20 MUL ADD PUSH1 0x20 DUP2 ADD SWAP1 PUSH2 0x360 SWAP2 SWAP1 PUSH2 0x556 JUMP JUMPDEST PUSH1 0x1 PUSH1 0x1 PUSH1 0xA0 SHL SUB AND PUSH32 0xC12C845AA612685CE7EBA62F9A39AA76CD74C79886BA529D72A23D31690D8C73 DUP7 DUP7 DUP6 DUP2 DUP2 LT PUSH2 0x39C JUMPI PUSH2 0x39C PUSH2 0x506 JUMP JUMPDEST SWAP1 POP PUSH1 0x20 MUL ADD CALLDATALOAD PUSH1 0x40 MLOAD PUSH2 0x3B2 SWAP2 DUP2 MSTORE PUSH1 0x20 ADD SWAP1 JUMP JUMPDEST PUSH1 0x40 MLOAD DUP1 SWAP2 SUB SWAP1 LOG2 PUSH2 0x441 JUMP JUMPDEST DUP7 DUP7 DUP4 DUP2 DUP2 LT PUSH2 0x3D1 JUMPI PUSH2 0x3D1 PUSH2 0x506 JUMP JUMPDEST SWAP1 POP PUSH1 0x20 MUL ADD PUSH1 0x20 DUP2 ADD SWAP1 PUSH2 0x3E6 SWAP2 SWAP1 PUSH2 0x556 JUMP JUMPDEST PUSH1 0x1 PUSH1 0x1 PUSH1 0xA0 SHL SUB AND PUSH32 0x1C43B9761B3FBA5321CA8212BFC231945F668CCC0C446F333999EEA9CE8FDA81 DUP7 DUP7 DUP6 DUP2 DUP2 LT PUSH2 0x422 JUMPI PUSH2 0x422 PUSH2 0x506 JUMP JUMPDEST SWAP1 POP PUSH1 0x20 MUL ADD CALLDATALOAD PUSH1 0x40 MLOAD PUSH2 0x438 SWAP2 DUP2 MSTORE PUSH1 0x20 ADD SWAP1 JUMP JUMPDEST PUSH1 0x40 MLOAD DUP1 SWAP2 SUB SWAP1 LOG2 JUMPDEST POP PUSH1 0x1 ADD PUSH2 0x261 JUMP JUMPDEST POP POP POP POP POP POP JUMP JUMPDEST PUSH0 DUP1 DUP4 PUSH1 0x1F DUP5 ADD SLT PUSH2 0x462 JUMPI PUSH0 DUP1 REVERT JUMPDEST POP DUP2 CALLDATALOAD PUSH8 0xFFFFFFFFFFFFFFFF DUP2 GT ISZERO PUSH2 0x479 JUMPI PUSH0 DUP1 REVERT JUMPDEST PUSH1 0x20 DUP4 ADD SWAP2 POP DUP4 PUSH1 0x20 DUP3 PUSH1 0x5 SHL DUP6 ADD ADD GT ISZERO PUSH2 0x493 JUMPI PUSH0 DUP1 REVERT JUMPDEST SWAP3 POP SWAP3 SWAP1 POP JUMP JUMPDEST PUSH0 DUP1 PUSH0 DUP1 PUSH1 0x40 DUP6 DUP8 SUB SLT ISZERO PUSH2 0x4AD JUMPI PUSH0 DUP1 REVERT JUMPDEST DUP5 CALLDATALOAD PUSH8 0xFFFFFFFFFFFFFFFF DUP2 GT ISZERO PUSH2 0x4C3 JUMPI PUSH0 DUP1 REVERT JUMPDEST PUSH2 0x4CF DUP8 DUP3 DUP9 ADD PUSH2 0x452 JUMP JUMPDEST SWAP1 SWAP6 POP SWAP4 POP POP PUSH1 0x20 DUP6 ADD CALLDATALOAD PUSH8 0xFFFFFFFFFFFFFFFF DUP2 GT ISZERO PUSH2 0x4EE JUMPI PUSH0 DUP1 REVERT JUMPDEST PUSH2 0x4FA DUP8 DUP3 DUP9 ADD PUSH2 0x452 JUMP JUMPDEST SWAP6 SWAP9 SWAP5 SWAP8 POP SWAP6 POP POP POP POP JUMP JUMPDEST PUSH4 0x4E487B71 PUSH1 0xE0 SHL PUSH0 MSTORE PUSH1 0x32 PUSH1 0x4 MSTORE PUSH1 0x24 PUSH0 REVERT JUMPDEST DUP1 DUP3 ADD DUP1 DUP3 GT ISZERO PUSH2 0x539 JUMPI PUSH4 0x4E487B71 PUSH1 0xE0 SHL PUSH0 MSTORE PUSH1 0x11 PUSH1 0x4 MSTORE PUSH1 0x24 PUSH0 REVERT JUMPDEST SWAP3 SWAP2 POP POP JUMP JUMPDEST PUSH0 PUSH1 0x20 DUP3 DUP5 SUB SLT ISZERO PUSH2 0x54F JUMPI PUSH0 DUP1 REVERT JUMPDEST POP MLOAD SWAP2 SWAP1 POP JUMP JUMPDEST PUSH0 PUSH1 0x20 DUP3 DUP5 SUB SLT ISZERO PUSH2 0x566 JUMPI PUSH0 DUP1 REVERT JUMPDEST DUP2 CALLDATALOAD PUSH1 0x1 PUSH1 0x1 PUSH1 0xA0 SHL SUB DUP2 AND DUP2 EQ PUSH2 0x57C JUMPI PUSH0 DUP1 REVERT JUMPDEST SWAP4 SWAP3 POP POP POP JUMP JUMPDEST PUSH0 PUSH1 0x20 DUP3 DUP5 SUB SLT ISZERO PUSH2 0x593 JUMPI PUSH0 DUP1 REVERT JUMPDEST DUP2 MLOAD DUP1 ISZERO ISZERO DUP2 EQ PUSH2 0x57C JUMPI PUSH0 DUP1 REVERT INVALID LOG2 PUSH5 0x6970667358 0x22 SLT KECCAK256 SELFBALANCE 0x21 RETURNDATACOPY 0xB1 MOD 0xD9 SUB EXTCODESIZE PUSH24 0x5E1DCF66D3A8ADBEE4D6969A75F47CEA4EB9B6A29E4F4764 PUSH20 0x6F6C634300081A00330000000000000000000000 "
				},
				"gasEstimates": {
					"creation": {
						"codeDepositCost": "299200",
						"executionCost": "infinite",
						"totalCost": "infinite"
					},
					"external": {
						"MAX_BATCH_SIZE()": "183",
						"multiSend(address[],uint256[])": "infinite",
						"token()": "2357"
					}
				},
				"methodIdentifiers": {
					"MAX_BATCH_SIZE()": "cfdbf254",
					"multiSend(address[],uint256[])": "bb4c9f0b",
					"token()": "fc0c546a"
				}
			},
			"storageLayout": {
				"storage": [
					{
						"astId": 81,
						"contract": "contracts/MultiSend_flattened.sol:MultiSend",
						"label": "token",
						"offset": 0,
						"slot": "0",
						"type": "t_contract(IERC20)77"
					}
				],
				"types": {
					"t_contract(IERC20)77": {
						"encoding": "inplace",
						"label": "contract IERC20",
						"numberOfBytes": "20"
					}
				}
			},
			"userdoc": {
				"kind": "user",
				"methods": {},
				"version": 1
			}
		}
	}
}